{
  "contractName": "ArtistCollection",
  "abi": [
    {
      "inputs": [],
      "stateMutability": "nonpayable",
      "type": "constructor"
    },
    {
      "anonymous": false,
      "inputs": [
        {
          "indexed": true,
          "internalType": "address",
          "name": "account",
          "type": "address"
        },
        {
          "indexed": true,
          "internalType": "address",
          "name": "operator",
          "type": "address"
        },
        {
          "indexed": false,
          "internalType": "bool",
          "name": "approved",
          "type": "bool"
        }
      ],
      "name": "ApprovalForAll",
      "type": "event"
    },
    {
      "anonymous": false,
      "inputs": [
        {
          "indexed": true,
          "internalType": "address",
          "name": "operator",
          "type": "address"
        },
        {
          "indexed": true,
          "internalType": "address",
          "name": "from",
          "type": "address"
        },
        {
          "indexed": true,
          "internalType": "address",
          "name": "to",
          "type": "address"
        },
        {
          "indexed": false,
          "internalType": "uint256[]",
          "name": "ids",
          "type": "uint256[]"
        },
        {
          "indexed": false,
          "internalType": "uint256[]",
          "name": "values",
          "type": "uint256[]"
        }
      ],
      "name": "TransferBatch",
      "type": "event"
    },
    {
      "anonymous": false,
      "inputs": [
        {
          "indexed": true,
          "internalType": "address",
          "name": "operator",
          "type": "address"
        },
        {
          "indexed": true,
          "internalType": "address",
          "name": "from",
          "type": "address"
        },
        {
          "indexed": true,
          "internalType": "address",
          "name": "to",
          "type": "address"
        },
        {
          "indexed": false,
          "internalType": "uint256",
          "name": "id",
          "type": "uint256"
        },
        {
          "indexed": false,
          "internalType": "uint256",
          "name": "value",
          "type": "uint256"
        }
      ],
      "name": "TransferSingle",
      "type": "event"
    },
    {
      "anonymous": false,
      "inputs": [
        {
          "indexed": false,
          "internalType": "string",
          "name": "value",
          "type": "string"
        },
        {
          "indexed": true,
          "internalType": "uint256",
          "name": "id",
          "type": "uint256"
        }
      ],
      "name": "URI",
      "type": "event"
    },
    {
      "inputs": [
        {
          "internalType": "uint256",
          "name": "",
          "type": "uint256"
        }
      ],
      "name": "HasURI",
      "outputs": [
        {
          "internalType": "bool",
          "name": "",
          "type": "bool"
        }
      ],
      "stateMutability": "view",
      "type": "function",
      "constant": true
    },
    {
      "inputs": [],
      "name": "IsInitialized",
      "outputs": [
        {
          "internalType": "bool",
          "name": "",
          "type": "bool"
        }
      ],
      "stateMutability": "view",
      "type": "function",
      "constant": true
    },
    {
      "inputs": [
        {
          "internalType": "address",
          "name": "account",
          "type": "address"
        },
        {
          "internalType": "uint256",
          "name": "id",
          "type": "uint256"
        }
      ],
      "name": "balanceOf",
      "outputs": [
        {
          "internalType": "uint256",
          "name": "",
          "type": "uint256"
        }
      ],
      "stateMutability": "view",
      "type": "function",
      "constant": true
    },
    {
      "inputs": [
        {
          "internalType": "address[]",
          "name": "accounts",
          "type": "address[]"
        },
        {
          "internalType": "uint256[]",
          "name": "ids",
          "type": "uint256[]"
        }
      ],
      "name": "balanceOfBatch",
      "outputs": [
        {
          "internalType": "uint256[]",
          "name": "",
          "type": "uint256[]"
        }
      ],
      "stateMutability": "view",
      "type": "function",
      "constant": true
    },
    {
      "inputs": [],
      "name": "creator",
      "outputs": [
        {
          "internalType": "address",
          "name": "",
          "type": "address"
        }
      ],
      "stateMutability": "view",
      "type": "function",
      "constant": true
    },
    {
      "inputs": [
        {
          "internalType": "address",
          "name": "account",
          "type": "address"
        },
        {
          "internalType": "address",
          "name": "operator",
          "type": "address"
        }
      ],
      "name": "isApprovedForAll",
      "outputs": [
        {
          "internalType": "bool",
          "name": "",
          "type": "bool"
        }
      ],
      "stateMutability": "view",
      "type": "function",
      "constant": true
    },
    {
      "inputs": [],
      "name": "name",
      "outputs": [
        {
          "internalType": "string",
          "name": "",
          "type": "string"
        }
      ],
      "stateMutability": "view",
      "type": "function",
      "constant": true
    },
    {
      "inputs": [
        {
          "internalType": "uint256",
          "name": "",
          "type": "uint256"
        }
      ],
      "name": "nft",
      "outputs": [
        {
          "internalType": "string",
          "name": "name",
          "type": "string"
        },
        {
          "internalType": "uint256",
          "name": "height",
          "type": "uint256"
        },
        {
          "internalType": "bool",
          "name": "hair",
          "type": "bool"
        }
      ],
      "stateMutability": "view",
      "type": "function",
      "constant": true
    },
    {
      "inputs": [
        {
          "internalType": "uint256",
          "name": "tokenId",
          "type": "uint256"
        },
        {
          "internalType": "uint256",
          "name": "value",
          "type": "uint256"
        }
      ],
      "name": "royaltyInfo",
      "outputs": [
        {
          "internalType": "address",
          "name": "receiver",
          "type": "address"
        },
        {
          "internalType": "uint256",
          "name": "royaltyAmount",
          "type": "uint256"
        }
      ],
      "stateMutability": "view",
      "type": "function",
      "constant": true
    },
    {
      "inputs": [
        {
          "internalType": "address",
          "name": "from",
          "type": "address"
        },
        {
          "internalType": "address",
          "name": "to",
          "type": "address"
        },
        {
          "internalType": "uint256[]",
          "name": "ids",
          "type": "uint256[]"
        },
        {
          "internalType": "uint256[]",
          "name": "amounts",
          "type": "uint256[]"
        },
        {
          "internalType": "bytes",
          "name": "data",
          "type": "bytes"
        }
      ],
      "name": "safeBatchTransferFrom",
      "outputs": [],
      "stateMutability": "nonpayable",
      "type": "function"
    },
    {
      "inputs": [
        {
          "internalType": "address",
          "name": "from",
          "type": "address"
        },
        {
          "internalType": "address",
          "name": "to",
          "type": "address"
        },
        {
          "internalType": "uint256",
          "name": "id",
          "type": "uint256"
        },
        {
          "internalType": "uint256",
          "name": "amount",
          "type": "uint256"
        },
        {
          "internalType": "bytes",
          "name": "data",
          "type": "bytes"
        }
      ],
      "name": "safeTransferFrom",
      "outputs": [],
      "stateMutability": "nonpayable",
      "type": "function"
    },
    {
      "inputs": [
        {
          "internalType": "address",
          "name": "operator",
          "type": "address"
        },
        {
          "internalType": "bool",
          "name": "approved",
          "type": "bool"
        }
      ],
      "name": "setApprovalForAll",
      "outputs": [],
      "stateMutability": "nonpayable",
      "type": "function"
    },
    {
      "inputs": [
        {
          "internalType": "uint256",
          "name": "",
          "type": "uint256"
        }
      ],
      "name": "supply",
      "outputs": [
        {
          "internalType": "uint256",
          "name": "",
          "type": "uint256"
        }
      ],
      "stateMutability": "view",
      "type": "function",
      "constant": true
    },
    {
      "inputs": [],
      "name": "symbol",
      "outputs": [
        {
          "internalType": "string",
          "name": "",
          "type": "string"
        }
      ],
      "stateMutability": "view",
      "type": "function",
      "constant": true
    },
    {
      "inputs": [
        {
          "internalType": "bytes4",
          "name": "interfaceId",
          "type": "bytes4"
        }
      ],
      "name": "supportsInterface",
      "outputs": [
        {
          "internalType": "bool",
          "name": "",
          "type": "bool"
        }
      ],
      "stateMutability": "view",
      "type": "function",
      "constant": true
    },
    {
      "inputs": [],
      "name": "NbNFTinColl",
      "outputs": [
        {
          "internalType": "uint256",
          "name": "",
          "type": "uint256"
        }
      ],
      "stateMutability": "view",
      "type": "function",
      "constant": true
    },
    {
      "inputs": [
        {
          "internalType": "string",
          "name": "_name",
          "type": "string"
        },
        {
          "internalType": "uint256",
          "name": "_number",
          "type": "uint256"
        },
        {
          "internalType": "uint256",
          "name": "_height",
          "type": "uint256"
        },
        {
          "internalType": "bool",
          "name": "_hair",
          "type": "bool"
        }
      ],
      "name": "MintNFT",
      "outputs": [
        {
          "internalType": "uint256",
          "name": "",
          "type": "uint256"
        }
      ],
      "stateMutability": "nonpayable",
      "type": "function"
    },
    {
      "inputs": [
        {
          "internalType": "address",
          "name": "add",
          "type": "address"
        },
        {
          "internalType": "string",
          "name": "AN",
          "type": "string"
        },
        {
          "internalType": "string",
          "name": "AS",
          "type": "string"
        },
        {
          "internalType": "contract ListAndExchange",
          "name": "_exchange",
          "type": "address"
        }
      ],
      "name": "init",
      "outputs": [],
      "stateMutability": "nonpayable",
      "type": "function"
    },
    {
      "inputs": [
        {
          "internalType": "string",
          "name": "_uri",
          "type": "string"
        },
        {
          "internalType": "uint256",
          "name": "_id",
          "type": "uint256"
        }
      ],
      "name": "setURI",
      "outputs": [],
      "stateMutability": "nonpayable",
      "type": "function"
    },
    {
      "inputs": [
        {
          "internalType": "uint256",
          "name": "tokenId",
          "type": "uint256"
        }
      ],
      "name": "uri",
      "outputs": [
        {
          "internalType": "string",
          "name": "",
          "type": "string"
        }
      ],
      "stateMutability": "view",
      "type": "function",
      "constant": true
    },
    {
      "inputs": [],
      "name": "getNft",
      "outputs": [
        {
          "components": [
            {
              "internalType": "string",
              "name": "name",
              "type": "string"
            },
            {
              "internalType": "uint256",
              "name": "height",
              "type": "uint256"
            },
            {
              "internalType": "bool",
              "name": "hair",
              "type": "bool"
            }
          ],
          "internalType": "struct ArtistCollection.NFT[]",
          "name": "",
          "type": "tuple[]"
        }
      ],
      "stateMutability": "view",
      "type": "function",
      "constant": true
    },
    {
      "inputs": [
        {
          "internalType": "address",
          "name": "add",
          "type": "address"
        }
      ],
      "name": "AllBalancesOf",
      "outputs": [
        {
          "internalType": "uint256",
          "name": "",
          "type": "uint256"
        }
      ],
      "stateMutability": "view",
      "type": "function",
      "constant": true
    }
  ],
  "bytecode": "0x60806040523480156200001157600080fd5b506040518060400160405280600e81526020017f4e6f20555249207365742079657400000000000000000000000000000000000081525062000059816200006060201b60201c565b5062000190565b8060029080519060200190620000789291906200007c565b5050565b8280546200008a906200015b565b90600052602060002090601f016020900481019282620000ae5760008555620000fa565b82601f10620000c957805160ff1916838001178555620000fa565b82800160010185558215620000fa579182015b82811115620000f9578251825591602001919060010190620000dc565b5b5090506200010991906200010d565b5090565b5b80821115620001285760008160009055506001016200010e565b5090565b7f4e487b7100000000000000000000000000000000000000000000000000000000600052602260045260246000fd5b600060028204905060018216806200017457607f821691505b6020821081036200018a57620001896200012c565b5b50919050565b6142ad80620001a06000396000f3fe608060405234801561001057600080fd5b50600436106101415760003560e01c806386d17c16116100b8578063a9d890d01161007c578063a9d890d0146103c5578063ac513fb8146103f5578063b12f9d2c14610413578063e985e9c514610431578063ef2423fa14610461578063f242432a1461047d57610141565b806386d17c161461030b57806395975b2a1461033b57806395d89b41146103595780639d0214cb14610377578063a22cb465146103a957610141565b80630e89341c1161010a5780630e89341c146102125780632a55205a146102425780632eb2c2d614610273578063354030231461028f5780634e1273f4146102bf57806367db3b8f146102ef57610141565b8062fdd58e1461014657806301ffc9a71461017657806302d05d3f146101a657806306fdde03146101c45780630779d9a1146101e2575b600080fd5b610160600480360381019061015b919061280b565b610499565b60405161016d919061285a565b60405180910390f35b610190600480360381019061018b91906128cd565b610561565b60405161019d9190612915565b60405180910390f35b6101ae610573565b6040516101bb919061293f565b60405180910390f35b6101cc610599565b6040516101d991906129f3565b60405180910390f35b6101fc60048036038101906101f79190612a15565b610627565b6040516102099190612915565b60405180910390f35b61022c60048036038101906102279190612a15565b61065b565b60405161023991906129f3565b60405180910390f35b61025c60048036038101906102579190612a42565b610700565b60405161026a929190612a82565b60405180910390f35b61028d60048036038101906102889190612ca8565b6107d1565b005b6102a960048036038101906102a49190612a15565b610872565b6040516102b6919061285a565b60405180910390f35b6102d960048036038101906102d49190612e3a565b610896565b6040516102e69190612f70565b60405180910390f35b61030960048036038101906103049190613033565b6109af565b005b610325600480360381019061032091906130bb565b610beb565b604051610332919061285a565b60405180910390f35b610343610f69565b6040516103509190612915565b60405180910390f35b610361610f7c565b60405161036e91906129f3565b60405180910390f35b610391600480360381019061038c9190612a15565b61100a565b6040516103a09392919061313e565b60405180910390f35b6103c360048036038101906103be919061317c565b6110d9565b005b6103df60048036038101906103da91906131bc565b6110ef565b6040516103ec919061285a565b60405180910390f35b6103fd61113f565b60405161040a9190613354565b60405180910390f35b61041b611255565b604051610428919061285a565b60405180910390f35b61044b60048036038101906104469190613376565b611262565b6040516104589190612915565b60405180910390f35b61047b600480360381019061047691906133f4565b6112f6565b005b61049760048036038101906104929190613493565b61149f565b005b60008073ffffffffffffffffffffffffffffffffffffffff168373ffffffffffffffffffffffffffffffffffffffff1603610509576040517f08c379a00000000000000000000000000000000000000000000000000000000081526004016105009061359c565b60405180910390fd5b60008083815260200190815260200160002060008473ffffffffffffffffffffffffffffffffffffffff1673ffffffffffffffffffffffffffffffffffffffff16815260200190815260200160002054905092915050565b600061056c82611540565b9050919050565b600860009054906101000a900473ffffffffffffffffffffffffffffffffffffffff1681565b600580546105a6906135eb565b80601f01602080910402602001604051908101604052809291908181526020018280546105d2906135eb565b801561061f5780601f106105f45761010080835404028352916020019161061f565b820191906000526020600020905b81548152906001019060200180831161060257829003601f168201915b505050505081565b6009818154811061063757600080fd5b9060005260206000209060209182820401919006915054906101000a900460ff1681565b606060076000838152602001908152602001600020805461067b906135eb565b80601f01602080910402602001604051908101604052809291908181526020018280546106a7906135eb565b80156106f45780601f106106c9576101008083540402835291602001916106f4565b820191906000526020600020905b8154815290600101906020018083116106d757829003601f168201915b50505050509050919050565b6000806000600360008681526020019081526020016000206040518060400160405290816000820160009054906101000a900473ffffffffffffffffffffffffffffffffffffffff1673ffffffffffffffffffffffffffffffffffffffff1673ffffffffffffffffffffffffffffffffffffffff1681526020016000820160149054906101000a900462ffffff1662ffffff1662ffffff1681525050905080600001519250612710816020015162ffffff16856107bd919061364b565b6107c791906136d4565b9150509250929050565b6107d96115ba565b73ffffffffffffffffffffffffffffffffffffffff168573ffffffffffffffffffffffffffffffffffffffff16148061081f575061081e856108196115ba565b611262565b5b61085e576040517f08c379a000000000000000000000000000000000000000000000000000000000815260040161085590613777565b60405180910390fd5b61086b85858585856115c2565b5050505050565b600c818154811061088257600080fd5b906000526020600020016000915090505481565b606081518351146108dc576040517f08c379a00000000000000000000000000000000000000000000000000000000081526004016108d390613809565b60405180910390fd5b6000835167ffffffffffffffff8111156108f9576108f8612ab0565b5b6040519080825280602002602001820160405280156109275781602001602082028036833780820191505090505b50905060005b84518110156109a45761097485828151811061094c5761094b613829565b5b602002602001015185838151811061096757610966613829565b5b6020026020010151610499565b82828151811061098757610986613829565b5b6020026020010181815250508061099d90613858565b905061092d565b508091505092915050565b600860009054906101000a900473ffffffffffffffffffffffffffffffffffffffff1673ffffffffffffffffffffffffffffffffffffffff163373ffffffffffffffffffffffffffffffffffffffff1614610a3f576040517f08c379a0000000000000000000000000000000000000000000000000000000008152600401610a36906138ec565b60405180910390fd5b6000151560098281548110610a5757610a56613829565b5b90600052602060002090602091828204019190069054906101000a900460ff16151514610ab9576040517f08c379a0000000000000000000000000000000000000000000000000000000008152600401610ab090613958565b60405180910390fd5b81600760008381526020019081526020016000209080519060200190610ae09291906126c0565b50807f6bb7ff708619ba0610cba295a58592e0451dee2622938c8755667688daf3529b83604051610b1191906129f3565b60405180910390a2600160098281548110610b2f57610b2e613829565b5b90600052602060002090602091828204019190066101000a81548160ff021916908315150217905550600a60009054906101000a900473ffffffffffffffffffffffffffffffffffffffff1673ffffffffffffffffffffffffffffffffffffffff16634c01c3f930836040518363ffffffff1660e01b8152600401610bb5929190612a82565b600060405180830381600087803b158015610bcf57600080fd5b505af1158015610be3573d6000803e3d6000fd5b505050505050565b6000600860009054906101000a900473ffffffffffffffffffffffffffffffffffffffff1673ffffffffffffffffffffffffffffffffffffffff163373ffffffffffffffffffffffffffffffffffffffff1614610c7d576040517f08c379a0000000000000000000000000000000000000000000000000000000008152600401610c74906139c4565b60405180910390fd5b6000600b80549050905060008190505b6000821115610dc15760011515610cd4600b600185610cac91906139e4565b81548110610cbd57610cbc613829565b5b9060005260206000209060030201600001896118e3565b1515148015610d13575084600b600184610cee91906139e4565b81548110610cff57610cfe613829565b5b906000526020600020906003020160010154145b8015610d605750831515600b600184610d2c91906139e4565b81548110610d3d57610d3c613829565b5b906000526020600020906003020160020160009054906101000a900460ff161515145b15610dae57600182610d7291906139e4565b905085600c8281548110610d8957610d88613829565b5b906000526020600020016000828254610da29190613a18565b92505081905550600191505b8180610db990613a6e565b925050610c8d565b600b805490508103610f4157600b604051806060016040528089815260200187815260200186151581525090806001815401808255809150506001900390600052602060002090600302016000909190919091506000820151816000019080519060200190610e319291906126c0565b506020820151816001015560408201518160020160006101000a81548160ff0219169083151502179055505050610e686004611a50565b6009600090806001815401808255809150506001900390600052602060002090602091828204019190069091909190916101000a81548160ff0219169083151502179055506040518060400160405280600e81526020017f4e6f205552492073657420796574000000000000000000000000000000000000815250600760008381526020019081526020016000209080519060200190610f099291906126c0565b50610f1781336101f4611a66565b600c8690806001815401808255809150506001900390600052602060002001600090919091909150555b610f5c33828860405180602001604052806000815250611b62565b8092505050949350505050565b600860149054906101000a900460ff1681565b60068054610f89906135eb565b80601f0160208091040260200160405190810160405280929190818152602001828054610fb5906135eb565b80156110025780601f10610fd757610100808354040283529160200191611002565b820191906000526020600020905b815481529060010190602001808311610fe557829003601f168201915b505050505081565b600b818154811061101a57600080fd5b906000526020600020906003020160009150905080600001805461103d906135eb565b80601f0160208091040260200160405190810160405280929190818152602001828054611069906135eb565b80156110b65780601f1061108b576101008083540402835291602001916110b6565b820191906000526020600020905b81548152906001019060200180831161109957829003601f168201915b5050505050908060010154908060020160009054906101000a900460ff16905083565b6110eb6110e46115ba565b8383611d12565b5050565b600080600b805490509050600080600090505b82811015611134576111148582610499565b8261111f9190613a18565b9150808061112c90613858565b915050611102565b819350505050919050565b6060600b805480602002602001604051908101604052809291908181526020016000905b8282101561124c5783829060005260206000209060030201604051806060016040529081600082018054611196906135eb565b80601f01602080910402602001604051908101604052809291908181526020018280546111c2906135eb565b801561120f5780601f106111e45761010080835404028352916020019161120f565b820191906000526020600020905b8154815290600101906020018083116111f257829003601f168201915b50505050508152602001600182015481526020016002820160009054906101000a900460ff16151515158152505081526020019060010190611163565b50505050905090565b6000600b80549050905090565b6000600160008473ffffffffffffffffffffffffffffffffffffffff1673ffffffffffffffffffffffffffffffffffffffff16815260200190815260200160002060008373ffffffffffffffffffffffffffffffffffffffff1673ffffffffffffffffffffffffffffffffffffffff16815260200190815260200160002060009054906101000a900460ff16905092915050565b60001515600860149054906101000a900460ff1615151461134c576040517f08c379a000000000000000000000000000000000000000000000000000000000815260040161134390613ae3565b60405180910390fd5b82600590805190602001906113629291906126c0565b5081600690805190602001906113799291906126c0565b5083600860006101000a81548173ffffffffffffffffffffffffffffffffffffffff021916908373ffffffffffffffffffffffffffffffffffffffff1602179055506001600860146101000a81548160ff02191690831515021790555080600a60006101000a81548173ffffffffffffffffffffffffffffffffffffffff021916908373ffffffffffffffffffffffffffffffffffffffff160217905550600a60009054906101000a900473ffffffffffffffffffffffffffffffffffffffff1673ffffffffffffffffffffffffffffffffffffffff16639a8777aa6040518163ffffffff1660e01b8152600401600060405180830381600087803b15801561148157600080fd5b505af1158015611495573d6000803e3d6000fd5b5050505050505050565b6114a76115ba565b73ffffffffffffffffffffffffffffffffffffffff168573ffffffffffffffffffffffffffffffffffffffff1614806114ed57506114ec856114e76115ba565b611262565b5b61152c576040517f08c379a000000000000000000000000000000000000000000000000000000000815260040161152390613b75565b60405180910390fd5b6115398585858585611e7e565b5050505050565b60007f2a55205a000000000000000000000000000000000000000000000000000000007bffffffffffffffffffffffffffffffffffffffffffffffffffffffff1916827bffffffffffffffffffffffffffffffffffffffffffffffffffffffff191614806115b357506115b282612119565b5b9050919050565b600033905090565b8151835114611606576040517f08c379a00000000000000000000000000000000000000000000000000000000081526004016115fd90613c07565b60405180910390fd5b600073ffffffffffffffffffffffffffffffffffffffff168473ffffffffffffffffffffffffffffffffffffffff1603611675576040517f08c379a000000000000000000000000000000000000000000000000000000000815260040161166c90613c99565b60405180910390fd5b600061167f6115ba565b905061168f8187878787876121fb565b60005b84518110156118405760008582815181106116b0576116af613829565b5b6020026020010151905060008583815181106116cf576116ce613829565b5b60200260200101519050600080600084815260200190815260200160002060008b73ffffffffffffffffffffffffffffffffffffffff1673ffffffffffffffffffffffffffffffffffffffff16815260200190815260200160002054905081811015611770576040517f08c379a000000000000000000000000000000000000000000000000000000000815260040161176790613d2b565b60405180910390fd5b81810360008085815260200190815260200160002060008c73ffffffffffffffffffffffffffffffffffffffff1673ffffffffffffffffffffffffffffffffffffffff168152602001908152602001600020819055508160008085815260200190815260200160002060008b73ffffffffffffffffffffffffffffffffffffffff1673ffffffffffffffffffffffffffffffffffffffff16815260200190815260200160002060008282546118259190613a18565b925050819055505050508061183990613858565b9050611692565b508473ffffffffffffffffffffffffffffffffffffffff168673ffffffffffffffffffffffffffffffffffffffff168273ffffffffffffffffffffffffffffffffffffffff167f4a39dc06d4c0dbc64b70af90fd698a233a518aa5d07e595d983b8c0526c8f7fb87876040516118b7929190613d4b565b60405180910390a46118cd818787878787612203565b6118db81878787878761220b565b505050505050565b6000808380546118f2906135eb565b80601f016020809104026020016040519081016040528092919081815260200182805461191e906135eb565b801561196b5780601f106119405761010080835404028352916020019161196b565b820191906000526020600020905b81548152906001019060200180831161194e57829003601f168201915b505050505090506000839050600082519050815181146119915760009350505050611a4a565b60005b81811015611a41578281815181106119af576119ae613829565b5b602001015160f81c60f81b7effffffffffffffffffffffffffffffffffffffffffffffffffffffffffffff19168482815181106119ef576119ee613829565b5b602001015160f81c60f81b7effffffffffffffffffffffffffffffffffffffffffffffffffffffffffffff191614611a2e576000945050505050611a4a565b8080611a3990613858565b915050611994565b50600193505050505b92915050565b6001816000016000828254019250508190555050565b612710811115611aab576040517f08c379a0000000000000000000000000000000000000000000000000000000008152600401611aa290613dce565b60405180910390fd5b60405180604001604052808373ffffffffffffffffffffffffffffffffffffffff1681526020018262ffffff168152506003600085815260200190815260200160002060008201518160000160006101000a81548173ffffffffffffffffffffffffffffffffffffffff021916908373ffffffffffffffffffffffffffffffffffffffff16021790555060208201518160000160146101000a81548162ffffff021916908362ffffff160217905550905050505050565b600073ffffffffffffffffffffffffffffffffffffffff168473ffffffffffffffffffffffffffffffffffffffff1603611bd1576040517f08c379a0000000000000000000000000000000000000000000000000000000008152600401611bc890613e60565b60405180910390fd5b6000611bdb6115ba565b90506000611be8856123e2565b90506000611bf5856123e2565b9050611c06836000898585896121fb565b8460008088815260200190815260200160002060008973ffffffffffffffffffffffffffffffffffffffff1673ffffffffffffffffffffffffffffffffffffffff1681526020019081526020016000206000828254611c659190613a18565b925050819055508673ffffffffffffffffffffffffffffffffffffffff16600073ffffffffffffffffffffffffffffffffffffffff168473ffffffffffffffffffffffffffffffffffffffff167fc3d58168c5ae7397731d063d5bbf3d657854427343f4c083240f7aacaa2d0f628989604051611ce3929190613e80565b60405180910390a4611cfa83600089858589612203565b611d098360008989898961245c565b50505050505050565b8173ffffffffffffffffffffffffffffffffffffffff168373ffffffffffffffffffffffffffffffffffffffff1603611d80576040517f08c379a0000000000000000000000000000000000000000000000000000000008152600401611d7790613f1b565b60405180910390fd5b80600160008573ffffffffffffffffffffffffffffffffffffffff1673ffffffffffffffffffffffffffffffffffffffff16815260200190815260200160002060008473ffffffffffffffffffffffffffffffffffffffff1673ffffffffffffffffffffffffffffffffffffffff16815260200190815260200160002060006101000a81548160ff0219169083151502179055508173ffffffffffffffffffffffffffffffffffffffff168373ffffffffffffffffffffffffffffffffffffffff167f17307eab39ab6107e8899845ad3d59bd9653f200f220920489ca2b5937696c3183604051611e719190612915565b60405180910390a3505050565b600073ffffffffffffffffffffffffffffffffffffffff168473ffffffffffffffffffffffffffffffffffffffff1603611eed576040517f08c379a0000000000000000000000000000000000000000000000000000000008152600401611ee490613c99565b60405180910390fd5b6000611ef76115ba565b90506000611f04856123e2565b90506000611f11856123e2565b9050611f218389898585896121fb565b600080600088815260200190815260200160002060008a73ffffffffffffffffffffffffffffffffffffffff1673ffffffffffffffffffffffffffffffffffffffff16815260200190815260200160002054905085811015611fb8576040517f08c379a0000000000000000000000000000000000000000000000000000000008152600401611faf90613d2b565b60405180910390fd5b85810360008089815260200190815260200160002060008b73ffffffffffffffffffffffffffffffffffffffff1673ffffffffffffffffffffffffffffffffffffffff168152602001908152602001600020819055508560008089815260200190815260200160002060008a73ffffffffffffffffffffffffffffffffffffffff1673ffffffffffffffffffffffffffffffffffffffff168152602001908152602001600020600082825461206d9190613a18565b925050819055508773ffffffffffffffffffffffffffffffffffffffff168973ffffffffffffffffffffffffffffffffffffffff168573ffffffffffffffffffffffffffffffffffffffff167fc3d58168c5ae7397731d063d5bbf3d657854427343f4c083240f7aacaa2d0f628a8a6040516120ea929190613e80565b60405180910390a4612100848a8a86868a612203565b61210e848a8a8a8a8a61245c565b505050505050505050565b60007fd9b67a26000000000000000000000000000000000000000000000000000000007bffffffffffffffffffffffffffffffffffffffffffffffffffffffff1916827bffffffffffffffffffffffffffffffffffffffffffffffffffffffff191614806121e457507f0e89341c000000000000000000000000000000000000000000000000000000007bffffffffffffffffffffffffffffffffffffffffffffffffffffffff1916827bffffffffffffffffffffffffffffffffffffffffffffffffffffffff1916145b806121f457506121f382612633565b5b9050919050565b505050505050565b505050505050565b61222a8473ffffffffffffffffffffffffffffffffffffffff1661269d565b156123da578373ffffffffffffffffffffffffffffffffffffffff1663bc197c8187878686866040518663ffffffff1660e01b8152600401612270959493929190613f90565b6020604051808303816000875af19250505080156122ac57506040513d601f19601f820116820180604052508101906122a9919061400d565b60015b612351576122b8614047565b806308c379a00361231457506122cc614069565b806122d75750612316565b806040517f08c379a000000000000000000000000000000000000000000000000000000000815260040161230b91906129f3565b60405180910390fd5b505b6040517f08c379a00000000000000000000000000000000000000000000000000000000081526004016123489061416b565b60405180910390fd5b63bc197c8160e01b7bffffffffffffffffffffffffffffffffffffffffffffffffffffffff1916817bffffffffffffffffffffffffffffffffffffffffffffffffffffffff1916146123d8576040517f08c379a00000000000000000000000000000000000000000000000000000000081526004016123cf906141fd565b60405180910390fd5b505b505050505050565b60606000600167ffffffffffffffff81111561240157612400612ab0565b5b60405190808252806020026020018201604052801561242f5781602001602082028036833780820191505090505b509050828160008151811061244757612446613829565b5b60200260200101818152505080915050919050565b61247b8473ffffffffffffffffffffffffffffffffffffffff1661269d565b1561262b578373ffffffffffffffffffffffffffffffffffffffff1663f23a6e6187878686866040518663ffffffff1660e01b81526004016124c195949392919061421d565b6020604051808303816000875af19250505080156124fd57506040513d601f19601f820116820180604052508101906124fa919061400d565b60015b6125a257612509614047565b806308c379a003612565575061251d614069565b806125285750612567565b806040517f08c379a000000000000000000000000000000000000000000000000000000000815260040161255c91906129f3565b60405180910390fd5b505b6040517f08c379a00000000000000000000000000000000000000000000000000000000081526004016125999061416b565b60405180910390fd5b63f23a6e6160e01b7bffffffffffffffffffffffffffffffffffffffffffffffffffffffff1916817bffffffffffffffffffffffffffffffffffffffffffffffffffffffff191614612629576040517f08c379a0000000000000000000000000000000000000000000000000000000008152600401612620906141fd565b60405180910390fd5b505b505050505050565b60007f01ffc9a7000000000000000000000000000000000000000000000000000000007bffffffffffffffffffffffffffffffffffffffffffffffffffffffff1916827bffffffffffffffffffffffffffffffffffffffffffffffffffffffff1916149050919050565b6000808273ffffffffffffffffffffffffffffffffffffffff163b119050919050565b8280546126cc906135eb565b90600052602060002090601f0160209004810192826126ee5760008555612735565b82601f1061270757805160ff1916838001178555612735565b82800160010185558215612735579182015b82811115612734578251825591602001919060010190612719565b5b5090506127429190612746565b5090565b5b8082111561275f576000816000905550600101612747565b5090565b6000604051905090565b600080fd5b600080fd5b600073ffffffffffffffffffffffffffffffffffffffff82169050919050565b60006127a282612777565b9050919050565b6127b281612797565b81146127bd57600080fd5b50565b6000813590506127cf816127a9565b92915050565b6000819050919050565b6127e8816127d5565b81146127f357600080fd5b50565b600081359050612805816127df565b92915050565b600080604083850312156128225761282161276d565b5b6000612830858286016127c0565b9250506020612841858286016127f6565b9150509250929050565b612854816127d5565b82525050565b600060208201905061286f600083018461284b565b92915050565b60007fffffffff0000000000000000000000000000000000000000000000000000000082169050919050565b6128aa81612875565b81146128b557600080fd5b50565b6000813590506128c7816128a1565b92915050565b6000602082840312156128e3576128e261276d565b5b60006128f1848285016128b8565b91505092915050565b60008115159050919050565b61290f816128fa565b82525050565b600060208201905061292a6000830184612906565b92915050565b61293981612797565b82525050565b60006020820190506129546000830184612930565b92915050565b600081519050919050565b600082825260208201905092915050565b60005b83811015612994578082015181840152602081019050612979565b838111156129a3576000848401525b50505050565b6000601f19601f8301169050919050565b60006129c58261295a565b6129cf8185612965565b93506129df818560208601612976565b6129e8816129a9565b840191505092915050565b60006020820190508181036000830152612a0d81846129ba565b905092915050565b600060208284031215612a2b57612a2a61276d565b5b6000612a39848285016127f6565b91505092915050565b60008060408385031215612a5957612a5861276d565b5b6000612a67858286016127f6565b9250506020612a78858286016127f6565b9150509250929050565b6000604082019050612a976000830185612930565b612aa4602083018461284b565b9392505050565b600080fd5b7f4e487b7100000000000000000000000000000000000000000000000000000000600052604160045260246000fd5b612ae8826129a9565b810181811067ffffffffffffffff82111715612b0757612b06612ab0565b5b80604052505050565b6000612b1a612763565b9050612b268282612adf565b919050565b600067ffffffffffffffff821115612b4657612b45612ab0565b5b602082029050602081019050919050565b600080fd5b6000612b6f612b6a84612b2b565b612b10565b90508083825260208201905060208402830185811115612b9257612b91612b57565b5b835b81811015612bbb5780612ba788826127f6565b845260208401935050602081019050612b94565b5050509392505050565b600082601f830112612bda57612bd9612aab565b5b8135612bea848260208601612b5c565b91505092915050565b600080fd5b600067ffffffffffffffff821115612c1357612c12612ab0565b5b612c1c826129a9565b9050602081019050919050565b82818337600083830152505050565b6000612c4b612c4684612bf8565b612b10565b905082815260208101848484011115612c6757612c66612bf3565b5b612c72848285612c29565b509392505050565b600082601f830112612c8f57612c8e612aab565b5b8135612c9f848260208601612c38565b91505092915050565b600080600080600060a08688031215612cc457612cc361276d565b5b6000612cd2888289016127c0565b9550506020612ce3888289016127c0565b945050604086013567ffffffffffffffff811115612d0457612d03612772565b5b612d1088828901612bc5565b935050606086013567ffffffffffffffff811115612d3157612d30612772565b5b612d3d88828901612bc5565b925050608086013567ffffffffffffffff811115612d5e57612d5d612772565b5b612d6a88828901612c7a565b9150509295509295909350565b600067ffffffffffffffff821115612d9257612d91612ab0565b5b602082029050602081019050919050565b6000612db6612db184612d77565b612b10565b90508083825260208201905060208402830185811115612dd957612dd8612b57565b5b835b81811015612e025780612dee88826127c0565b845260208401935050602081019050612ddb565b5050509392505050565b600082601f830112612e2157612e20612aab565b5b8135612e31848260208601612da3565b91505092915050565b60008060408385031215612e5157612e5061276d565b5b600083013567ffffffffffffffff811115612e6f57612e6e612772565b5b612e7b85828601612e0c565b925050602083013567ffffffffffffffff811115612e9c57612e9b612772565b5b612ea885828601612bc5565b9150509250929050565b600081519050919050565b600082825260208201905092915050565b6000819050602082019050919050565b612ee7816127d5565b82525050565b6000612ef98383612ede565b60208301905092915050565b6000602082019050919050565b6000612f1d82612eb2565b612f278185612ebd565b9350612f3283612ece565b8060005b83811015612f63578151612f4a8882612eed565b9750612f5583612f05565b925050600181019050612f36565b5085935050505092915050565b60006020820190508181036000830152612f8a8184612f12565b905092915050565b600067ffffffffffffffff821115612fad57612fac612ab0565b5b612fb6826129a9565b9050602081019050919050565b6000612fd6612fd184612f92565b612b10565b905082815260208101848484011115612ff257612ff1612bf3565b5b612ffd848285612c29565b509392505050565b600082601f83011261301a57613019612aab565b5b813561302a848260208601612fc3565b91505092915050565b6000806040838503121561304a5761304961276d565b5b600083013567ffffffffffffffff81111561306857613067612772565b5b61307485828601613005565b9250506020613085858286016127f6565b9150509250929050565b613098816128fa565b81146130a357600080fd5b50565b6000813590506130b58161308f565b92915050565b600080600080608085870312156130d5576130d461276d565b5b600085013567ffffffffffffffff8111156130f3576130f2612772565b5b6130ff87828801613005565b9450506020613110878288016127f6565b9350506040613121878288016127f6565b9250506060613132878288016130a6565b91505092959194509250565b6000606082019050818103600083015261315881866129ba565b9050613167602083018561284b565b6131746040830184612906565b949350505050565b600080604083850312156131935761319261276d565b5b60006131a1858286016127c0565b92505060206131b2858286016130a6565b9150509250929050565b6000602082840312156131d2576131d161276d565b5b60006131e0848285016127c0565b91505092915050565b600081519050919050565b600082825260208201905092915050565b6000819050602082019050919050565b600082825260208201905092915050565b60006132318261295a565b61323b8185613215565b935061324b818560208601612976565b613254816129a9565b840191505092915050565b613268816128fa565b82525050565b6000606083016000830151848203600086015261328b8282613226565b91505060208301516132a06020860182612ede565b5060408301516132b3604086018261325f565b508091505092915050565b60006132ca838361326e565b905092915050565b6000602082019050919050565b60006132ea826131e9565b6132f481856131f4565b93508360208202850161330685613205565b8060005b85811015613342578484038952815161332385826132be565b945061332e836132d2565b925060208a0199505060018101905061330a565b50829750879550505050505092915050565b6000602082019050818103600083015261336e81846132df565b905092915050565b6000806040838503121561338d5761338c61276d565b5b600061339b858286016127c0565b92505060206133ac858286016127c0565b9150509250929050565b60006133c182612797565b9050919050565b6133d1816133b6565b81146133dc57600080fd5b50565b6000813590506133ee816133c8565b92915050565b6000806000806080858703121561340e5761340d61276d565b5b600061341c878288016127c0565b945050602085013567ffffffffffffffff81111561343d5761343c612772565b5b61344987828801613005565b935050604085013567ffffffffffffffff81111561346a57613469612772565b5b61347687828801613005565b9250506060613487878288016133df565b91505092959194509250565b600080600080600060a086880312156134af576134ae61276d565b5b60006134bd888289016127c0565b95505060206134ce888289016127c0565b94505060406134df888289016127f6565b93505060606134f0888289016127f6565b925050608086013567ffffffffffffffff81111561351157613510612772565b5b61351d88828901612c7a565b9150509295509295909350565b7f455243313135353a2062616c616e636520717565727920666f7220746865207a60008201527f65726f2061646472657373000000000000000000000000000000000000000000602082015250565b6000613586602b83612965565b91506135918261352a565b604082019050919050565b600060208201905081810360008301526135b581613579565b9050919050565b7f4e487b7100000000000000000000000000000000000000000000000000000000600052602260045260246000fd5b6000600282049050600182168061360357607f821691505b602082108103613616576136156135bc565b5b50919050565b7f4e487b7100000000000000000000000000000000000000000000000000000000600052601160045260246000fd5b6000613656826127d5565b9150613661836127d5565b9250817fffffffffffffffffffffffffffffffffffffffffffffffffffffffffffffffff048311821515161561369a5761369961361c565b5b828202905092915050565b7f4e487b7100000000000000000000000000000000000000000000000000000000600052601260045260246000fd5b60006136df826127d5565b91506136ea836127d5565b9250826136fa576136f96136a5565b5b828204905092915050565b7f455243313135353a207472616e736665722063616c6c6572206973206e6f742060008201527f6f776e6572206e6f7220617070726f7665640000000000000000000000000000602082015250565b6000613761603283612965565b915061376c82613705565b604082019050919050565b6000602082019050818103600083015261379081613754565b9050919050565b7f455243313135353a206163636f756e747320616e6420696473206c656e67746860008201527f206d69736d617463680000000000000000000000000000000000000000000000602082015250565b60006137f3602983612965565b91506137fe82613797565b604082019050919050565b60006020820190508181036000830152613822816137e6565b9050919050565b7f4e487b7100000000000000000000000000000000000000000000000000000000600052603260045260246000fd5b6000613863826127d5565b91507fffffffffffffffffffffffffffffffffffffffffffffffffffffffffffffffff82036138955761389461361c565b5b600182019050919050565b7f6e6f7420796f7572730000000000000000000000000000000000000000000000600082015250565b60006138d6600983612965565b91506138e1826138a0565b602082019050919050565b60006020820190508181036000830152613905816138c9565b9050919050565b7f55524920697320696d6d757461626c6520212100000000000000000000000000600082015250565b6000613942601383612965565b915061394d8261390c565b602082019050919050565b6000602082019050818103600083015261397181613935565b9050919050565b7f6e6f7420796f757220636f6c6c656374696f6e00000000000000000000000000600082015250565b60006139ae601383612965565b91506139b982613978565b602082019050919050565b600060208201905081810360008301526139dd816139a1565b9050919050565b60006139ef826127d5565b91506139fa836127d5565b925082821015613a0d57613a0c61361c565b5b828203905092915050565b6000613a23826127d5565b9150613a2e836127d5565b9250827fffffffffffffffffffffffffffffffffffffffffffffffffffffffffffffffff03821115613a6357613a6261361c565b5b828201905092915050565b6000613a79826127d5565b915060008203613a8c57613a8b61361c565b5b600182039050919050565b7f616c726561647920696e697469616c697a656400000000000000000000000000600082015250565b6000613acd601383612965565b9150613ad882613a97565b602082019050919050565b60006020820190508181036000830152613afc81613ac0565b9050919050565b7f455243313135353a2063616c6c6572206973206e6f74206f776e6572206e6f7260008201527f20617070726f7665640000000000000000000000000000000000000000000000602082015250565b6000613b5f602983612965565b9150613b6a82613b03565b604082019050919050565b60006020820190508181036000830152613b8e81613b52565b9050919050565b7f455243313135353a2069647320616e6420616d6f756e7473206c656e6774682060008201527f6d69736d61746368000000000000000000000000000000000000000000000000602082015250565b6000613bf1602883612965565b9150613bfc82613b95565b604082019050919050565b60006020820190508181036000830152613c2081613be4565b9050919050565b7f455243313135353a207472616e7366657220746f20746865207a65726f20616460008201527f6472657373000000000000000000000000000000000000000000000000000000602082015250565b6000613c83602583612965565b9150613c8e82613c27565b604082019050919050565b60006020820190508181036000830152613cb281613c76565b9050919050565b7f455243313135353a20696e73756666696369656e742062616c616e636520666f60008201527f72207472616e7366657200000000000000000000000000000000000000000000602082015250565b6000613d15602a83612965565b9150613d2082613cb9565b604082019050919050565b60006020820190508181036000830152613d4481613d08565b9050919050565b60006040820190508181036000830152613d658185612f12565b90508181036020830152613d798184612f12565b90509392505050565b7f45524332393831526f79616c746965733a20546f6f2068696768000000000000600082015250565b6000613db8601a83612965565b9150613dc382613d82565b602082019050919050565b60006020820190508181036000830152613de781613dab565b9050919050565b7f455243313135353a206d696e7420746f20746865207a65726f2061646472657360008201527f7300000000000000000000000000000000000000000000000000000000000000602082015250565b6000613e4a602183612965565b9150613e5582613dee565b604082019050919050565b60006020820190508181036000830152613e7981613e3d565b9050919050565b6000604082019050613e95600083018561284b565b613ea2602083018461284b565b9392505050565b7f455243313135353a2073657474696e6720617070726f76616c2073746174757360008201527f20666f722073656c660000000000000000000000000000000000000000000000602082015250565b6000613f05602983612965565b9150613f1082613ea9565b604082019050919050565b60006020820190508181036000830152613f3481613ef8565b9050919050565b600081519050919050565b600082825260208201905092915050565b6000613f6282613f3b565b613f6c8185613f46565b9350613f7c818560208601612976565b613f85816129a9565b840191505092915050565b600060a082019050613fa56000830188612930565b613fb26020830187612930565b8181036040830152613fc48186612f12565b90508181036060830152613fd88185612f12565b90508181036080830152613fec8184613f57565b90509695505050505050565b600081519050614007816128a1565b92915050565b6000602082840312156140235761402261276d565b5b600061403184828501613ff8565b91505092915050565b60008160e01c9050919050565b600060033d11156140665760046000803e61406360005161403a565b90505b90565b600060443d106140f65761407b612763565b60043d036004823e80513d602482011167ffffffffffffffff821117156140a35750506140f6565b808201805167ffffffffffffffff8111156140c157505050506140f6565b80602083010160043d0385018111156140de5750505050506140f6565b6140ed82602001850186612adf565b82955050505050505b90565b7f455243313135353a207472616e7366657220746f206e6f6e204552433131353560008201527f526563656976657220696d706c656d656e746572000000000000000000000000602082015250565b6000614155603483612965565b9150614160826140f9565b604082019050919050565b6000602082019050818103600083015261418481614148565b9050919050565b7f455243313135353a204552433131353552656365697665722072656a6563746560008201527f6420746f6b656e73000000000000000000000000000000000000000000000000602082015250565b60006141e7602883612965565b91506141f28261418b565b604082019050919050565b60006020820190508181036000830152614216816141da565b9050919050565b600060a0820190506142326000830188612930565b61423f6020830187612930565b61424c604083018661284b565b614259606083018561284b565b818103608083015261426b8184613f57565b9050969550505050505056fea2646970667358221220828ccc7e49c781c5b8d2ca3a8ae140a40487a9f691a90bfae5501ace61d404f364736f6c634300080e0033",
  "immutableReferences": {},
  "source": "// SPDX-License-Identifier: MIT\r\npragma solidity 0.8.14;\r\n\r\nimport \"@openzeppelin/contracts/token/ERC1155/ERC1155.sol\";\r\nimport \"./Royalties.sol\";\r\nimport \"./ListAndExchange.sol\";\r\n \r\n\r\ncontract ArtistCollection is ERC1155, Royalties {\r\n\r\n    using Counters for Counters.Counter;\r\n    Counters.Counter private _tokenIds;\r\n    string public name;\r\n    string public symbol;\r\n    mapping (uint256 => string) private _uris;\r\n    address public creator;\r\n    bool public IsInitialized;\r\n    bool[] public HasURI;\r\n    ListAndExchange exchange;\r\n\r\n    struct NFT{\r\n        string name;\r\n        uint height;\r\n        bool hair;\r\n    }\r\n    NFT[] public nft;\r\n    uint[] public supply;\r\n\r\n    constructor() ERC1155(\"No URI set yet\") {}\r\n\r\n    function stringsEquals(string storage s1, string memory s2) private pure returns (bool) {\r\n      bytes memory b1 = bytes(s1);\r\n      bytes memory b2 = bytes(s2);\r\n      uint256 l1 = b1.length;\r\n      if (l1 != b2.length) return false;\r\n        for (uint256 i=0; i<l1; i++) {\r\n        if (b1[i] != b2[i]) return false;\r\n        }\r\n      return true;\r\n    }\r\n\r\n     function supportsInterface(bytes4 interfaceId) public view virtual override(ERC1155, Royalties) returns (bool){\r\n        return super.supportsInterface(interfaceId);\r\n    }\r\n\r\n    function NbNFTinColl() public view returns ( uint ) {\r\n        return nft.length;\r\n    }\r\n\r\n    function MintNFT( string memory _name, uint _number, uint _height, bool _hair) public returns (uint){  \r\n        require(msg.sender==creator, \"not your collection\");\r\n        uint i = nft.length; \r\n        uint256 ItemId=i;\r\n        while (i>0) { \r\n            if (stringsEquals(nft[i-1].name, _name)==true && nft[i-1].height==_height && nft[i-1].hair==_hair)   \r\n            { ItemId = i-1; supply[ItemId] += _number; i=1; } i--; \r\n        }\r\n        if (ItemId==nft.length) { \r\n        nft.push(NFT(_name, _height, _hair));\r\n        _tokenIds.increment();\r\n        HasURI.push(false);\r\n        _uris[ItemId] = \"No URI set yet\";\r\n        _setTokenRoyalty(ItemId, msg.sender, 500);\r\n        supply.push(_number);\r\n        }\r\n        _mint(msg.sender, ItemId, _number, \"\"); //id=uint256; _number=amount; data vide en bytes\r\n\r\n        return ItemId;    \r\n    }\r\n\r\n    function init(address add, string memory AN, string memory AS, ListAndExchange _exchange) public {\r\n        require(IsInitialized == false, \"already initialized\");\r\n        name = AN;\r\n        symbol = AS;\r\n        creator = add;       \r\n        IsInitialized = true;\r\n        exchange = _exchange;\r\n        exchange.MapCollection();\r\n    }\r\n\r\n    function setURI(string memory _uri, uint256 _id) public {\r\n        require (msg.sender==creator, \"not yours\");\r\n        require (HasURI[_id]==false, \"URI is immutable !!\");\r\n        _uris[_id] = _uri;\r\n        emit URI(_uri, _id);\r\n        HasURI[_id]=true;\r\n        exchange.ListNFT(address(this), _id);\r\n    }\r\n\r\n    function uri(uint256 tokenId) override public view returns (string memory) {\r\n        return(_uris[tokenId]);\r\n    }\r\n\r\n    function getNft() public view returns (NFT[] memory){ return nft;}\r\n\r\n    function AllBalancesOf(address add) public view returns (uint) {\r\n        uint i = nft.length; uint allBalances; uint j;\r\n        for (j=0; j<i; j++) { allBalances += balanceOf(add, j);}\r\n        return allBalances;\r\n    }\r\n\r\n}\r\n\r\n",
  "sourcePath": "/home/bosca/NFT9/contracts/ArtistCollection.sol",
  "compiler": {
    "name": "solc",
    "version": "0.8.14+commit.80d49f37.Emscripten.clang"
  },
  "schemaVersion": "3.4.7",
  "updatedAt": "2022-06-27T12:49:35.090Z",
  "networkType": "ethereum",
  "devdoc": {
    "kind": "dev",
    "methods": {
      "balanceOf(address,uint256)": {
        "details": "See {IERC1155-balanceOf}. Requirements: - `account` cannot be the zero address."
      },
      "balanceOfBatch(address[],uint256[])": {
        "details": "See {IERC1155-balanceOfBatch}. Requirements: - `accounts` and `ids` must have the same length."
      },
      "isApprovedForAll(address,address)": {
        "details": "See {IERC1155-isApprovedForAll}."
      },
      "safeBatchTransferFrom(address,address,uint256[],uint256[],bytes)": {
        "details": "See {IERC1155-safeBatchTransferFrom}."
      },
      "safeTransferFrom(address,address,uint256,uint256,bytes)": {
        "details": "See {IERC1155-safeTransferFrom}."
      },
      "setApprovalForAll(address,bool)": {
        "details": "See {IERC1155-setApprovalForAll}."
      }
    },
    "version": 1
  },
  "userdoc": {
    "kind": "user",
    "methods": {},
    "version": 1
  }
}