{
  "contractName": "ListAndExchange",
  "abi": [
    {
      "anonymous": false,
      "inputs": [
        {
          "indexed": false,
          "internalType": "uint256",
          "name": "exchangeId",
          "type": "uint256"
        },
        {
          "indexed": false,
          "internalType": "uint256",
          "name": "newAmount",
          "type": "uint256"
        }
      ],
      "name": "AmountChanged",
      "type": "event"
    },
    {
      "anonymous": false,
      "inputs": [
        {
          "indexed": false,
          "internalType": "uint256",
          "name": "exchangeId",
          "type": "uint256"
        },
        {
          "indexed": false,
          "internalType": "address",
          "name": "seller",
          "type": "address"
        },
        {
          "indexed": false,
          "internalType": "uint256",
          "name": "possibleAmount",
          "type": "uint256"
        }
      ],
      "name": "Bought",
      "type": "event"
    },
    {
      "anonymous": false,
      "inputs": [
        {
          "indexed": false,
          "internalType": "contract ArtistCollection",
          "name": "contrat",
          "type": "address"
        }
      ],
      "name": "CollectionAdded",
      "type": "event"
    },
    {
      "anonymous": false,
      "inputs": [
        {
          "indexed": false,
          "internalType": "address",
          "name": "collectionAddress",
          "type": "address"
        },
        {
          "indexed": false,
          "internalType": "string",
          "name": "name",
          "type": "string"
        },
        {
          "indexed": false,
          "internalType": "uint256",
          "name": "amount",
          "type": "uint256"
        },
        {
          "indexed": false,
          "internalType": "uint256",
          "name": "price",
          "type": "uint256"
        }
      ],
      "name": "ForSale",
      "type": "event"
    },
    {
      "anonymous": false,
      "inputs": [
        {
          "indexed": false,
          "internalType": "address",
          "name": "creator",
          "type": "address"
        },
        {
          "indexed": false,
          "internalType": "address",
          "name": "collectionAddress",
          "type": "address"
        },
        {
          "indexed": false,
          "internalType": "string",
          "name": "name",
          "type": "string"
        }
      ],
      "name": "Listed",
      "type": "event"
    },
    {
      "anonymous": false,
      "inputs": [
        {
          "indexed": false,
          "internalType": "uint256",
          "name": "exchangeId",
          "type": "uint256"
        },
        {
          "indexed": false,
          "internalType": "uint256",
          "name": "price",
          "type": "uint256"
        }
      ],
      "name": "PriceChanged",
      "type": "event"
    },
    {
      "inputs": [
        {
          "internalType": "address",
          "name": "",
          "type": "address"
        },
        {
          "internalType": "uint256",
          "name": "",
          "type": "uint256"
        }
      ],
      "name": "collectionsB",
      "outputs": [
        {
          "internalType": "contract ArtistCollection",
          "name": "",
          "type": "address"
        }
      ],
      "stateMutability": "view",
      "type": "function",
      "constant": true
    },
    {
      "inputs": [
        {
          "internalType": "address",
          "name": "",
          "type": "address"
        },
        {
          "internalType": "uint256",
          "name": "",
          "type": "uint256"
        }
      ],
      "name": "collectionsC",
      "outputs": [
        {
          "internalType": "contract ArtistCollection",
          "name": "",
          "type": "address"
        }
      ],
      "stateMutability": "view",
      "type": "function",
      "constant": true
    },
    {
      "inputs": [
        {
          "internalType": "uint256",
          "name": "",
          "type": "uint256"
        }
      ],
      "name": "nft",
      "outputs": [
        {
          "internalType": "address",
          "name": "collectionAddress",
          "type": "address"
        },
        {
          "internalType": "address",
          "name": "creator",
          "type": "address"
        },
        {
          "internalType": "string",
          "name": "name",
          "type": "string"
        },
        {
          "internalType": "string",
          "name": "uri",
          "type": "string"
        },
        {
          "internalType": "uint256",
          "name": "IdInCollection",
          "type": "uint256"
        },
        {
          "internalType": "uint256",
          "name": "exchangeId",
          "type": "uint256"
        },
        {
          "internalType": "uint256",
          "name": "sold",
          "type": "uint256"
        },
        {
          "internalType": "uint256",
          "name": "forSale",
          "type": "uint256"
        },
        {
          "internalType": "uint256",
          "name": "minPrice",
          "type": "uint256"
        },
        {
          "internalType": "uint256",
          "name": "height",
          "type": "uint256"
        },
        {
          "internalType": "bool",
          "name": "hair",
          "type": "bool"
        }
      ],
      "stateMutability": "view",
      "type": "function",
      "constant": true
    },
    {
      "inputs": [
        {
          "internalType": "address",
          "name": "add",
          "type": "address"
        },
        {
          "internalType": "contract ArtistCollection",
          "name": "contrat",
          "type": "address"
        }
      ],
      "name": "PositiveIndexOfCollectionC",
      "outputs": [
        {
          "internalType": "uint256",
          "name": "",
          "type": "uint256"
        }
      ],
      "stateMutability": "view",
      "type": "function",
      "constant": true
    },
    {
      "inputs": [],
      "name": "NbNFT",
      "outputs": [
        {
          "internalType": "uint256",
          "name": "",
          "type": "uint256"
        }
      ],
      "stateMutability": "view",
      "type": "function",
      "constant": true
    },
    {
      "inputs": [
        {
          "internalType": "address",
          "name": "add",
          "type": "address"
        },
        {
          "internalType": "contract ArtistCollection",
          "name": "contrat",
          "type": "address"
        }
      ],
      "name": "PositiveIndexOfCollectionB",
      "outputs": [
        {
          "internalType": "uint256",
          "name": "",
          "type": "uint256"
        }
      ],
      "stateMutability": "view",
      "type": "function",
      "constant": true
    },
    {
      "inputs": [
        {
          "internalType": "address",
          "name": "add",
          "type": "address"
        }
      ],
      "name": "NbCollB",
      "outputs": [
        {
          "internalType": "uint256",
          "name": "",
          "type": "uint256"
        }
      ],
      "stateMutability": "view",
      "type": "function",
      "constant": true
    },
    {
      "inputs": [
        {
          "internalType": "address",
          "name": "add",
          "type": "address"
        }
      ],
      "name": "NbCollC",
      "outputs": [
        {
          "internalType": "uint256",
          "name": "",
          "type": "uint256"
        }
      ],
      "stateMutability": "view",
      "type": "function",
      "constant": true
    },
    {
      "inputs": [
        {
          "internalType": "uint256",
          "name": "exchangeId",
          "type": "uint256"
        }
      ],
      "name": "getSellers",
      "outputs": [
        {
          "internalType": "address[]",
          "name": "",
          "type": "address[]"
        }
      ],
      "stateMutability": "view",
      "type": "function",
      "constant": true
    },
    {
      "inputs": [
        {
          "internalType": "uint256",
          "name": "exchangeId",
          "type": "uint256"
        }
      ],
      "name": "getPrices",
      "outputs": [
        {
          "internalType": "uint256[]",
          "name": "",
          "type": "uint256[]"
        }
      ],
      "stateMutability": "view",
      "type": "function",
      "constant": true
    },
    {
      "inputs": [
        {
          "internalType": "uint256",
          "name": "exchangeId",
          "type": "uint256"
        }
      ],
      "name": "getAmounts",
      "outputs": [
        {
          "internalType": "uint256[]",
          "name": "",
          "type": "uint256[]"
        }
      ],
      "stateMutability": "view",
      "type": "function",
      "constant": true
    },
    {
      "inputs": [],
      "name": "MapCollection",
      "outputs": [],
      "stateMutability": "nonpayable",
      "type": "function"
    },
    {
      "inputs": [
        {
          "internalType": "address",
          "name": "collectionAddress",
          "type": "address"
        },
        {
          "internalType": "uint256",
          "name": "Id",
          "type": "uint256"
        }
      ],
      "name": "ListNFT",
      "outputs": [],
      "stateMutability": "nonpayable",
      "type": "function"
    },
    {
      "inputs": [
        {
          "internalType": "uint256",
          "name": "exchangeId",
          "type": "uint256"
        },
        {
          "internalType": "uint256",
          "name": "price",
          "type": "uint256"
        },
        {
          "internalType": "uint256",
          "name": "amount",
          "type": "uint256"
        }
      ],
      "name": "SellNFT",
      "outputs": [],
      "stateMutability": "nonpayable",
      "type": "function"
    },
    {
      "inputs": [
        {
          "internalType": "uint256",
          "name": "exchangeId",
          "type": "uint256"
        },
        {
          "internalType": "uint256",
          "name": "newPrice",
          "type": "uint256"
        }
      ],
      "name": "ChangePrice",
      "outputs": [],
      "stateMutability": "nonpayable",
      "type": "function"
    },
    {
      "inputs": [
        {
          "internalType": "uint256",
          "name": "exchangeId",
          "type": "uint256"
        },
        {
          "internalType": "uint256",
          "name": "newAmount",
          "type": "uint256"
        }
      ],
      "name": "ChangeAmount",
      "outputs": [],
      "stateMutability": "nonpayable",
      "type": "function"
    },
    {
      "inputs": [
        {
          "internalType": "uint256",
          "name": "exchangeId",
          "type": "uint256"
        },
        {
          "internalType": "uint256",
          "name": "sellerIndex",
          "type": "uint256"
        },
        {
          "internalType": "uint256",
          "name": "amount",
          "type": "uint256"
        }
      ],
      "name": "BuyNFT",
      "outputs": [],
      "stateMutability": "payable",
      "type": "function",
      "payable": true
    }
  ],
  "bytecode": "0x6080604052306000806101000a81548173ffffffffffffffffffffffffffffffffffffffff021916908373ffffffffffffffffffffffffffffffffffffffff16021790555034801561005057600080fd5b50614151806100606000396000f3fe6080604052600436106100fe5760003560e01c80639149295611610095578063a39e425611610064578063a39e42561461037a578063a87d9959146103b7578063b0a5dc80146103f4578063d244cb5d1461041d578063d7b5845614610446576100fe565b806391492956146102a257806391ac1b34146102df5780639a8777aa1461031c5780639d0214cb14610333576100fe565b806359f7cf50116100d157806359f7cf50146101c257806376e94a46146101ff5780637a23754e1461023c5780638c3b901214610265576100fe565b80632f9ba72d146101035780633e2b146d1461011f57806341d0dc071461015c5780634c01c3f914610199575b600080fd5b61011d60048036038101906101189190612fcb565b610471565b005b34801561012b57600080fd5b506101466004803603810190610141919061307c565b610cff565b60405161015391906130b8565b60405180910390f35b34801561016857600080fd5b50610183600480360381019061017e9190613111565b610d4b565b60405161019091906130b8565b60405180910390f35b3480156101a557600080fd5b506101c060048036038101906101bb9190613151565b610e9e565b005b3480156101ce57600080fd5b506101e960048036038101906101e49190613191565b6115cb565b6040516101f6919061327c565b60405180910390f35b34801561020b57600080fd5b5061022660048036038101906102219190613191565b611648565b604051610233919061335c565b60405180910390f35b34801561024857600080fd5b50610263600480360381019061025e919061337e565b6116fb565b005b34801561027157600080fd5b5061028c60048036038101906102879190613151565b611b5b565b604051610299919061341d565b60405180910390f35b3480156102ae57600080fd5b506102c960048036038101906102c49190613191565b611ba9565b6040516102d6919061327c565b60405180910390f35b3480156102eb57600080fd5b5061030660048036038101906103019190613111565b611c26565b60405161031391906130b8565b60405180910390f35b34801561032857600080fd5b50610331611d79565b005b34801561033f57600080fd5b5061035a60048036038101906103559190613191565b611ecc565b6040516103719b9a999897969594939291906134fb565b60405180910390f35b34801561038657600080fd5b506103a1600480360381019061039c919061307c565b612093565b6040516103ae91906130b8565b60405180910390f35b3480156103c357600080fd5b506103de60048036038101906103d99190613151565b6120df565b6040516103eb919061341d565b60405180910390f35b34801561040057600080fd5b5061041b6004803603810190610416919061337e565b61212d565b005b34801561042957600080fd5b50610444600480360381019061043f9190612fcb565b6126a6565b005b34801561045257600080fd5b5061045b612dfa565b60405161046891906130b8565b60405180910390f35b600081036104b4576040517f08c379a00000000000000000000000000000000000000000000000000000000081526004016104ab90613600565b60405180910390fd5b6000600484815481106104ca576104c9613620565b5b90600052602060002090600e0201600a0183815481106104ed576104ec613620565b5b906000526020600020015490506000600485815481106105105761050f613620565b5b90600052602060002090600e0201600901848154811061053357610532613620565b5b9060005260206000200160009054906101000a900473ffffffffffffffffffffffffffffffffffffffff16905060006004868154811061057657610575613620565b5b90600052602060002090600e020160000160009054906101000a900473ffffffffffffffffffffffffffffffffffffffff1690506000600487815481106105c0576105bf613620565b5b90600052602060002090600e0201600401549050600082905060008173ffffffffffffffffffffffffffffffffffffffff1662fdd58e86856040518363ffffffff1660e01b815260040161061592919061364f565b602060405180830381865afa158015610632573d6000803e3d6000fd5b505050506040513d601f19601f82011682018060405250810190610656919061368d565b90506004898154811061066c5761066b613620565b5b90600052602060002090600e0201600b01888154811061068f5761068e613620565b5b90600052602060002001548110156106e8578060048a815481106106b6576106b5613620565b5b90600052602060002090600e0201600b0189815481106106d9576106d8613620565b5b90600052602060002001819055505b8681101561072b576040517f08c379a000000000000000000000000000000000000000000000000000000000815260040161072290613706565b60405180910390fd5b600087876107399190613755565b90508034101561077e576040517f08c379a000000000000000000000000000000000000000000000000000000000815260040161077590613821565b60405180910390fd5b6000813461078c9190613841565b90508373ffffffffffffffffffffffffffffffffffffffff1663f242432a8833888d6040518563ffffffff1660e01b81526004016107cd94939291906138ac565b600060405180830381600087803b1580156107e757600080fd5b505af11580156107fb573d6000803e3d6000fd5b5050505060008790508073ffffffffffffffffffffffffffffffffffffffff166108fc849081150290604051600060405180830381858888f1935050505015801561084a573d6000803e3d6000fd5b50655af3107a40008211156108a75760003390508073ffffffffffffffffffffffffffffffffffffffff166108fc849081150290604051600060405180830381858888f193505050501580156108a4573d6000803e3d6000fd5b50505b8960048d815481106108bc576108bb613620565b5b90600052602060002090600e020160060160008282546108dc9190613904565b925050819055508960048d815481106108f8576108f7613620565b5b90600052602060002090600e020160070160008282546109189190613841565b925050819055508960048d8154811061093457610933613620565b5b90600052602060002090600e0201600b018c8154811061095757610956613620565b5b9060005260206000200160008282546109709190613841565b9250508190555060006109833387611c26565b905060008103610a2e57600660003373ffffffffffffffffffffffffffffffffffffffff1673ffffffffffffffffffffffffffffffffffffffff168152602001908152602001600020869080600181540180825580915050600190039060005260206000200160009091909190916101000a81548173ffffffffffffffffffffffffffffffffffffffff021916908373ffffffffffffffffffffffffffffffffffffffff1602179055505b60008673ffffffffffffffffffffffffffffffffffffffff1663a9d890d08b6040518263ffffffff1660e01b8152600401610a69919061395a565b602060405180830381865afa158015610a86573d6000803e3d6000fd5b505050506040513d601f19601f82011682018060405250810190610aaa919061368d565b03610cb557610ab98987611c26565b90506000600660008b73ffffffffffffffffffffffffffffffffffffffff1673ffffffffffffffffffffffffffffffffffffffff168152602001908152602001600020805490509050600660008b73ffffffffffffffffffffffffffffffffffffffff1673ffffffffffffffffffffffffffffffffffffffff168152602001908152602001600020600182610b4e9190613841565b81548110610b5f57610b5e613620565b5b9060005260206000200160009054906101000a900473ffffffffffffffffffffffffffffffffffffffff16600660008c73ffffffffffffffffffffffffffffffffffffffff1673ffffffffffffffffffffffffffffffffffffffff168152602001908152602001600020600184610bd69190613841565b81548110610be757610be6613620565b5b9060005260206000200160006101000a81548173ffffffffffffffffffffffffffffffffffffffff021916908373ffffffffffffffffffffffffffffffffffffffff160217905550600660008b73ffffffffffffffffffffffffffffffffffffffff1673ffffffffffffffffffffffffffffffffffffffff168152602001908152602001600020805480610c7e57610c7d613975565b5b6001900381819060005260206000200160006101000a81549073ffffffffffffffffffffffffffffffffffffffff02191690559055505b7fd2728f908c7e0feb83c6278798370fcb86b62f236c9dbf1a3f541096c21590408d8a8d604051610ce8939291906139a4565b60405180910390a150505050505050505050505050565b6000600560008373ffffffffffffffffffffffffffffffffffffffff1673ffffffffffffffffffffffffffffffffffffffff168152602001908152602001600020805490509050919050565b600080600560008573ffffffffffffffffffffffffffffffffffffffff1673ffffffffffffffffffffffffffffffffffffffff1681526020019081526020016000208054905090506000805b6000831115610e79578473ffffffffffffffffffffffffffffffffffffffff16600560008873ffffffffffffffffffffffffffffffffffffffff1673ffffffffffffffffffffffffffffffffffffffff168152602001908152602001600020600185610e039190613841565b81548110610e1457610e13613620565b5b9060005260206000200160009054906101000a900473ffffffffffffffffffffffffffffffffffffffff1673ffffffffffffffffffffffffffffffffffffffff1603610e665760019050829150600192505b8280610e71906139db565b935050610d97565b6001151581151503610e9057819350505050610e98565b600093505050505b92915050565b600082905060008173ffffffffffffffffffffffffffffffffffffffff166302d05d3f6040518163ffffffff1660e01b8152600401602060405180830381865afa158015610ef0573d6000803e3d6000fd5b505050506040513d601f19601f82011682018060405250810190610f149190613a19565b905060008060008473ffffffffffffffffffffffffffffffffffffffff16639d0214cb876040518263ffffffff1660e01b8152600401610f5491906130b8565b600060405180830381865afa158015610f71573d6000803e3d6000fd5b505050506040513d6000823e3d601f19601f82011682018060405250810190610f9a9190613b98565b925092509250600115158573ffffffffffffffffffffffffffffffffffffffff16630779d9a1886040518263ffffffff1660e01b8152600401610fdd91906130b8565b602060405180830381865afa158015610ffa573d6000803e3d6000fd5b505050506040513d601f19601f8201168201806040525081019061101e9190613c07565b151514611060576040517f08c379a000000000000000000000000000000000000000000000000000000000815260040161105790613c80565b60405180910390fd5b6000604051806101c001604052808973ffffffffffffffffffffffffffffffffffffffff1681526020018673ffffffffffffffffffffffffffffffffffffffff1681526020018581526020018773ffffffffffffffffffffffffffffffffffffffff16630e89341c8a6040518263ffffffff1660e01b81526004016110e591906130b8565b600060405180830381865afa158015611102573d6000803e3d6000fd5b505050506040513d6000823e3d601f19601f8201168201806040525081019061112b9190613ca0565b8152602001888152602001600480549050815260200160008152602001600081526020016000815260200160018054806020026020016040519081016040528092919081815260200182805480156111d857602002820191906000526020600020905b8160009054906101000a900473ffffffffffffffffffffffffffffffffffffffff1673ffffffffffffffffffffffffffffffffffffffff168152602001906001019080831161118e575b50505050508152602001600280548060200260200160405190810160405280929190818152602001828054801561122e57602002820191906000526020600020905b81548152602001906001019080831161121a575b50505050508152602001600280548060200260200160405190810160405280929190818152602001828054801561128457602002820191906000526020600020905b815481526020019060010190808311611270575b50505050508152602001848152602001831515815250905060048190806001815401808255809150506001900390600052602060002090600e020160009091909190915060008201518160000160006101000a81548173ffffffffffffffffffffffffffffffffffffffff021916908373ffffffffffffffffffffffffffffffffffffffff16021790555060208201518160010160006101000a81548173ffffffffffffffffffffffffffffffffffffffff021916908373ffffffffffffffffffffffffffffffffffffffff1602179055506040820151816002019080519060200190611372929190612e07565b50606082015181600301908051906020019061138f929190612e07565b506080820151816004015560a0820151816005015560c0820151816006015560e0820151816007015561010082015181600801556101208201518160090190805190602001906113e0929190612e8d565b5061014082015181600a0190805190602001906113fe929190612f17565b5061016082015181600b01908051906020019061141c929190612f17565b5061018082015181600c01556101a082015181600d0160006101000a81548160ff021916908315150217905550505060008673ffffffffffffffffffffffffffffffffffffffff1662fdd58e878a6040518363ffffffff1660e01b815260040161148792919061364f565b602060405180830381865afa1580156114a4573d6000803e3d6000fd5b505050506040513d601f19601f820116820180604052508101906114c8919061368d565b146115865760006114d98688611c26565b90506000810361158457600660008773ffffffffffffffffffffffffffffffffffffffff1673ffffffffffffffffffffffffffffffffffffffff168152602001908152602001600020879080600181540180825580915050600190039060005260206000200160009091909190916101000a81548173ffffffffffffffffffffffffffffffffffffffff021916908373ffffffffffffffffffffffffffffffffffffffff1602179055505b505b7f2d57ffbc29dba731e3c939a139705fc0c43ee7fce680c352f269e5c7dce301488589866040516115b993929190613ce9565b60405180910390a15050505050505050565b6060600482815481106115e1576115e0613620565b5b90600052602060002090600e0201600b0180548060200260200160405190810160405280929190818152602001828054801561163c57602002820191906000526020600020905b815481526020019060010190808311611628575b50505050509050919050565b60606004828154811061165e5761165d613620565b5b90600052602060002090600e02016009018054806020026020016040519081016040528092919081815260200182805480156116ef57602002820191906000526020600020905b8160009054906101000a900473ffffffffffffffffffffffffffffffffffffffff1673ffffffffffffffffffffffffffffffffffffffff16815260200190600101908083116116a5575b50505050509050919050565b60006004838154811061171157611710613620565b5b90600052602060002090600e020160090180549050905060008190506000805b6000841115611932573373ffffffffffffffffffffffffffffffffffffffff166004878154811061176557611764613620565b5b90600052602060002090600e02016009016001866117839190613841565b8154811061179457611793613620565b5b9060005260206000200160009054906101000a900473ffffffffffffffffffffffffffffffffffffffff1673ffffffffffffffffffffffffffffffffffffffff160361191f57600486815481106117ee576117ed613620565b5b90600052602060002090600e0201600a0160018561180c9190613841565b8154811061181d5761181c613620565b5b9060005260206000200154905084810361186c576040517f08c379a000000000000000000000000000000000000000000000000000000000815260040161186390613d73565b60405180910390fd5b846004878154811061188157611880613620565b5b90600052602060002090600e0201600a0160018661189f9190613841565b815481106118b0576118af613620565b5b9060005260206000200181905550600486815481106118d2576118d1613620565b5b90600052602060002090600e020160080154851015611916578460048781548110611900576118ff613620565b5b90600052602060002090600e0201600801819055505b60019150600193505b838061192a906139db565b945050611731565b6001151582151514611979576040517f08c379a000000000000000000000000000000000000000000000000000000000815260040161197090613ddf565b60405180910390fd5b60006004878154811061198f5761198e613620565b5b90600052602060002090600e0201600801549050808203611b1957600487815481106119be576119bd613620565b5b90600052602060002090600e0201600a016000815481106119e2576119e1613620565b5b906000526020600020015490506000600190505b84811015611aed578160048981548110611a1357611a12613620565b5b90600052602060002090600e0201600a018281548110611a3657611a35613620565b5b9060005260206000200154108015611a905750600060048981548110611a5f57611a5e613620565b5b90600052602060002090600e0201600b018281548110611a8257611a81613620565b5b906000526020600020015414155b15611ada5760048881548110611aa957611aa8613620565b5b90600052602060002090600e0201600a018181548110611acc57611acb613620565b5b906000526020600020015491505b8080611ae590613dff565b9150506119f6565b508060048881548110611b0357611b02613620565b5b90600052602060002090600e0201600801819055505b7f8aa4fa52648a6d15edce8a179c792c86f3719d0cc3c572cf90f91948f0f2cb688787604051611b4a929190613e47565b60405180910390a150505050505050565b60056020528160005260406000208181548110611b7757600080fd5b906000526020600020016000915091509054906101000a900473ffffffffffffffffffffffffffffffffffffffff1681565b606060048281548110611bbf57611bbe613620565b5b90600052602060002090600e0201600a01805480602002602001604051908101604052809291908181526020018280548015611c1a57602002820191906000526020600020905b815481526020019060010190808311611c06575b50505050509050919050565b600080600660008573ffffffffffffffffffffffffffffffffffffffff1673ffffffffffffffffffffffffffffffffffffffff1681526020019081526020016000208054905090506000805b6000831115611d54578473ffffffffffffffffffffffffffffffffffffffff16600660008873ffffffffffffffffffffffffffffffffffffffff1673ffffffffffffffffffffffffffffffffffffffff168152602001908152602001600020600185611cde9190613841565b81548110611cef57611cee613620565b5b9060005260206000200160009054906101000a900473ffffffffffffffffffffffffffffffffffffffff1673ffffffffffffffffffffffffffffffffffffffff1603611d415760019050829150600192505b8280611d4c906139db565b935050611c72565b6001151581151503611d6b57819350505050611d73565b600093505050505b92915050565b600033905060008173ffffffffffffffffffffffffffffffffffffffff166302d05d3f6040518163ffffffff1660e01b8152600401602060405180830381865afa158015611dcb573d6000803e3d6000fd5b505050506040513d601f19601f82011682018060405250810190611def9190613a19565b9050600560008273ffffffffffffffffffffffffffffffffffffffff1673ffffffffffffffffffffffffffffffffffffffff168152602001908152602001600020829080600181540180825580915050600190039060005260206000200160009091909190916101000a81548173ffffffffffffffffffffffffffffffffffffffff021916908373ffffffffffffffffffffffffffffffffffffffff1602179055507f7701426aaa4c0c88a30924a7aba88dce66b18c4020b54e4e19c9e0eb0abc299282604051611ec0919061341d565b60405180910390a15050565b60048181548110611edc57600080fd5b90600052602060002090600e02016000915090508060000160009054906101000a900473ffffffffffffffffffffffffffffffffffffffff16908060010160009054906101000a900473ffffffffffffffffffffffffffffffffffffffff1690806002018054611f4b90613e9f565b80601f0160208091040260200160405190810160405280929190818152602001828054611f7790613e9f565b8015611fc45780601f10611f9957610100808354040283529160200191611fc4565b820191906000526020600020905b815481529060010190602001808311611fa757829003601f168201915b505050505090806003018054611fd990613e9f565b80601f016020809104026020016040519081016040528092919081815260200182805461200590613e9f565b80156120525780601f1061202757610100808354040283529160200191612052565b820191906000526020600020905b81548152906001019060200180831161203557829003601f168201915b50505050509080600401549080600501549080600601549080600701549080600801549080600c01549080600d0160009054906101000a900460ff1690508b565b6000600660008373ffffffffffffffffffffffffffffffffffffffff1673ffffffffffffffffffffffffffffffffffffffff168152602001908152602001600020805490509050919050565b600660205281600052604060002081815481106120fb57600080fd5b906000526020600020016000915091509054906101000a900473ffffffffffffffffffffffffffffffffffffffff1681565b60006004838154811061214357612142613620565b5b90600052602060002090600e020160000160009054906101000a900473ffffffffffffffffffffffffffffffffffffffff169050600081905060006004858154811061219257612191613620565b5b90600052602060002090600e0201600401549050838273ffffffffffffffffffffffffffffffffffffffff1662fdd58e33846040518363ffffffff1660e01b81526004016121e192919061364f565b602060405180830381865afa1580156121fe573d6000803e3d6000fd5b505050506040513d601f19601f82011682018060405250810190612222919061368d565b1015612263576040517f08c379a000000000000000000000000000000000000000000000000000000000815260040161225a90613f42565b60405180910390fd5b60006004868154811061227957612278613620565b5b90600052602060002090600e02016009018054905090506000805b6000831115612402573373ffffffffffffffffffffffffffffffffffffffff16600489815481106122c8576122c7613620565b5b90600052602060002090600e02016009016001856122e69190613841565b815481106122f7576122f6613620565b5b9060005260206000200160009054906101000a900473ffffffffffffffffffffffffffffffffffffffff1673ffffffffffffffffffffffffffffffffffffffff16036123ef576001905060018361234e9190613841565b915060006004898154811061236657612365613620565b5b90600052602060002090600e0201600b016001856123849190613841565b8154811061239557612394613620565b5b9060005260206000200154905080886123ae9190613841565b60048a815481106123c2576123c1613620565b5b90600052602060002090600e020160070160008282546123e29190613904565b9250508190555060019350505b82806123fa906139db565b935050612294565b6001151581151514612449576040517f08c379a000000000000000000000000000000000000000000000000000000000815260040161244090613ddf565b60405180910390fd5b6000871480156124be57506004888154811061246857612467613620565b5b90600052602060002090600e0201600801546004898154811061248e5761248d613620565b5b90600052602060002090600e0201600a0183815481106124b1576124b0613620565b5b9060005260206000200154145b15612663576000600489815481106124d9576124d8613620565b5b90600052602060002090600e0201600a016000815481106124fd576124fc613620565b5b90600052602060002001549050600060048a815481106125205761251f613620565b5b90600052602060002090600e0201600a018054905090506000600190505b81811015612635578260048c8154811061255b5761255a613620565b5b90600052602060002090600e0201600a01828154811061257e5761257d613620565b5b90600052602060002001541080156125d85750600060048c815481106125a7576125a6613620565b5b90600052602060002090600e0201600b0182815481106125ca576125c9613620565b5b906000526020600020015414155b156126225760048b815481106125f1576125f0613620565b5b90600052602060002090600e0201600a01818154811061261457612613613620565b5b906000526020600020015492505b808061262d90613dff565b91505061253e565b508160048b8154811061264b5761264a613620565b5b90600052602060002090600e02016008018190555050505b7f56c50bebe8547d738499d61991ae0168f315da9f52c9ae8c9b8c25c537a1b7a98888604051612694929190613e47565b60405180910390a15050505050505050565b600081036126e9576040517f08c379a00000000000000000000000000000000000000000000000000000000081526004016126e090613fae565b60405180910390fd5b6000600484815481106126ff576126fe613620565b5b90600052602060002090600e020160000160009054906101000a900473ffffffffffffffffffffffffffffffffffffffff169050600081905060006004868154811061274e5761274d613620565b5b90600052602060002090600e0201600201805461276a90613e9f565b80601f016020809104026020016040519081016040528092919081815260200182805461279690613e9f565b80156127e35780601f106127b8576101008083540402835291602001916127e3565b820191906000526020600020905b8154815290600101906020018083116127c657829003601f168201915b50505050509050600060048781548110612800576127ff613620565b5b90600052602060002090600e0201600401549050848373ffffffffffffffffffffffffffffffffffffffff1662fdd58e33846040518363ffffffff1660e01b815260040161284f92919061364f565b602060405180830381865afa15801561286c573d6000803e3d6000fd5b505050506040513d601f19601f82011682018060405250810190612890919061368d565b10156128d1576040517f08c379a00000000000000000000000000000000000000000000000000000000081526004016128c890613f42565b60405180910390fd5b600115158373ffffffffffffffffffffffffffffffffffffffff1663e985e9c53360008054906101000a900473ffffffffffffffffffffffffffffffffffffffff166040518363ffffffff1660e01b8152600401612930929190613fce565b602060405180830381865afa15801561294d573d6000803e3d6000fd5b505050506040513d601f19601f820116820180604052508101906129719190613c07565b1515146129b3576040517f08c379a00000000000000000000000000000000000000000000000000000000081526004016129aa90614043565b60405180910390fd5b6000600488815481106129c9576129c8613620565b5b90600052602060002090600e020160090180549050905060005b6000821115612b9b573373ffffffffffffffffffffffffffffffffffffffff1660048a81548110612a1757612a16613620565b5b90600052602060002090600e0201600901600184612a359190613841565b81548110612a4657612a45613620565b5b9060005260206000200160009054906101000a900473ffffffffffffffffffffffffffffffffffffffff1673ffffffffffffffffffffffffffffffffffffffff1603612b88578760048a81548110612aa157612aa0613620565b5b90600052602060002090600e0201600a01600184612abf9190613841565b81548110612ad057612acf613620565b5b906000526020600020015414612b1b576040517f08c379a0000000000000000000000000000000000000000000000000000000008152600401612b12906140af565b60405180910390fd5b8660048a81548110612b3057612b2f613620565b5b90600052602060002090600e0201600b01600184612b4e9190613841565b81548110612b5f57612b5e613620565b5b906000526020600020016000828254612b789190613904565b9250508190555060019150600190505b8180612b93906139db565b9250506129e3565b6000151581151503612cc65760048981548110612bbb57612bba613620565b5b90600052602060002090600e0201600901339080600181540180825580915050600190039060005260206000200160009091909190916101000a81548173ffffffffffffffffffffffffffffffffffffffff021916908373ffffffffffffffffffffffffffffffffffffffff16021790555060048981548110612c4157612c40613620565b5b90600052602060002090600e0201600a0188908060018154018082558091505060019003906000526020600020016000909190919091505560048981548110612c8d57612c8c613620565b5b90600052602060002090600e0201600b018790806001815401808255809150506001900390600052602060002001600090919091909150555b600060048a81548110612cdc57612cdb613620565b5b90600052602060002090600e02016007015403612d1e578760048a81548110612d0857612d07613620565b5b90600052602060002090600e0201600801819055505b60048981548110612d3257612d31613620565b5b90600052602060002090600e020160080154881015612d76578760048a81548110612d6057612d5f613620565b5b90600052602060002090600e0201600801819055505b8660048a81548110612d8b57612d8a613620565b5b90600052602060002090600e02016007016000828254612dab9190613904565b925050819055507fce258939fe581818e479271936d38bb20fce8c7cff721fcd8a1fc25131b2767e8685898b604051612de794939291906140cf565b60405180910390a1505050505050505050565b6000600480549050905090565b828054612e1390613e9f565b90600052602060002090601f016020900481019282612e355760008555612e7c565b82601f10612e4e57805160ff1916838001178555612e7c565b82800160010185558215612e7c579182015b82811115612e7b578251825591602001919060010190612e60565b5b509050612e899190612f64565b5090565b828054828255906000526020600020908101928215612f06579160200282015b82811115612f055782518260006101000a81548173ffffffffffffffffffffffffffffffffffffffff021916908373ffffffffffffffffffffffffffffffffffffffff16021790555091602001919060010190612ead565b5b509050612f139190612f64565b5090565b828054828255906000526020600020908101928215612f53579160200282015b82811115612f52578251825591602001919060010190612f37565b5b509050612f609190612f64565b5090565b5b80821115612f7d576000816000905550600101612f65565b5090565b6000604051905090565b600080fd5b600080fd5b6000819050919050565b612fa881612f95565b8114612fb357600080fd5b50565b600081359050612fc581612f9f565b92915050565b600080600060608486031215612fe457612fe3612f8b565b5b6000612ff286828701612fb6565b935050602061300386828701612fb6565b925050604061301486828701612fb6565b9150509250925092565b600073ffffffffffffffffffffffffffffffffffffffff82169050919050565b60006130498261301e565b9050919050565b6130598161303e565b811461306457600080fd5b50565b60008135905061307681613050565b92915050565b60006020828403121561309257613091612f8b565b5b60006130a084828501613067565b91505092915050565b6130b281612f95565b82525050565b60006020820190506130cd60008301846130a9565b92915050565b60006130de8261303e565b9050919050565b6130ee816130d3565b81146130f957600080fd5b50565b60008135905061310b816130e5565b92915050565b6000806040838503121561312857613127612f8b565b5b600061313685828601613067565b9250506020613147858286016130fc565b9150509250929050565b6000806040838503121561316857613167612f8b565b5b600061317685828601613067565b925050602061318785828601612fb6565b9150509250929050565b6000602082840312156131a7576131a6612f8b565b5b60006131b584828501612fb6565b91505092915050565b600081519050919050565b600082825260208201905092915050565b6000819050602082019050919050565b6131f381612f95565b82525050565b600061320583836131ea565b60208301905092915050565b6000602082019050919050565b6000613229826131be565b61323381856131c9565b935061323e836131da565b8060005b8381101561326f57815161325688826131f9565b975061326183613211565b925050600181019050613242565b5085935050505092915050565b60006020820190508181036000830152613296818461321e565b905092915050565b600081519050919050565b600082825260208201905092915050565b6000819050602082019050919050565b6132d38161303e565b82525050565b60006132e583836132ca565b60208301905092915050565b6000602082019050919050565b60006133098261329e565b61331381856132a9565b935061331e836132ba565b8060005b8381101561334f57815161333688826132d9565b9750613341836132f1565b925050600181019050613322565b5085935050505092915050565b6000602082019050818103600083015261337681846132fe565b905092915050565b6000806040838503121561339557613394612f8b565b5b60006133a385828601612fb6565b92505060206133b485828601612fb6565b9150509250929050565b6000819050919050565b60006133e36133de6133d98461301e565b6133be565b61301e565b9050919050565b60006133f5826133c8565b9050919050565b6000613407826133ea565b9050919050565b613417816133fc565b82525050565b6000602082019050613432600083018461340e565b92915050565b6134418161303e565b82525050565b600081519050919050565b600082825260208201905092915050565b60005b83811015613481578082015181840152602081019050613466565b83811115613490576000848401525b50505050565b6000601f19601f8301169050919050565b60006134b282613447565b6134bc8185613452565b93506134cc818560208601613463565b6134d581613496565b840191505092915050565b60008115159050919050565b6134f5816134e0565b82525050565b600061016082019050613511600083018e613438565b61351e602083018d613438565b8181036040830152613530818c6134a7565b90508181036060830152613544818b6134a7565b9050613553608083018a6130a9565b61356060a08301896130a9565b61356d60c08301886130a9565b61357a60e08301876130a9565b6135886101008301866130a9565b6135966101208301856130a9565b6135a46101408301846134ec565b9c9b505050505050505050505050565b7f6e6f203020627579000000000000000000000000000000000000000000000000600082015250565b60006135ea600883613452565b91506135f5826135b4565b602082019050919050565b60006020820190508181036000830152613619816135dd565b9050919050565b7f4e487b7100000000000000000000000000000000000000000000000000000000600052603260045260246000fd5b60006040820190506136646000830185613438565b61367160208301846130a9565b9392505050565b60008151905061368781612f9f565b92915050565b6000602082840312156136a3576136a2612f8b565b5b60006136b184828501613678565b91505092915050565b7f616d6f756e74206e6f7420617661696c61626c65000000000000000000000000600082015250565b60006136f0601483613452565b91506136fb826136ba565b602082019050919050565b6000602082019050818103600083015261371f816136e3565b9050919050565b7f4e487b7100000000000000000000000000000000000000000000000000000000600052601160045260246000fd5b600061376082612f95565b915061376b83612f95565b9250817fffffffffffffffffffffffffffffffffffffffffffffffffffffffffffffffff04831182151516156137a4576137a3613726565b5b828202905092915050565b7f6e6f7420656e6f7567682045544820746f2062757920617661696c61626c652060008201527f4e46540000000000000000000000000000000000000000000000000000000000602082015250565b600061380b602383613452565b9150613816826137af565b604082019050919050565b6000602082019050818103600083015261383a816137fe565b9050919050565b600061384c82612f95565b915061385783612f95565b92508282101561386a57613869613726565b5b828203905092915050565b600082825260208201905092915050565b50565b6000613896600083613875565b91506138a182613886565b600082019050919050565b600060a0820190506138c16000830187613438565b6138ce6020830186613438565b6138db60408301856130a9565b6138e860608301846130a9565b81810360808301526138f981613889565b905095945050505050565b600061390f82612f95565b915061391a83612f95565b9250827fffffffffffffffffffffffffffffffffffffffffffffffffffffffffffffffff0382111561394f5761394e613726565b5b828201905092915050565b600060208201905061396f6000830184613438565b92915050565b7f4e487b7100000000000000000000000000000000000000000000000000000000600052603160045260246000fd5b60006060820190506139b960008301866130a9565b6139c66020830185613438565b6139d360408301846130a9565b949350505050565b60006139e682612f95565b9150600082036139f9576139f8613726565b5b600182039050919050565b600081519050613a1381613050565b92915050565b600060208284031215613a2f57613a2e612f8b565b5b6000613a3d84828501613a04565b91505092915050565b600080fd5b600080fd5b7f4e487b7100000000000000000000000000000000000000000000000000000000600052604160045260246000fd5b613a8882613496565b810181811067ffffffffffffffff82111715613aa757613aa6613a50565b5b80604052505050565b6000613aba612f81565b9050613ac68282613a7f565b919050565b600067ffffffffffffffff821115613ae657613ae5613a50565b5b613aef82613496565b9050602081019050919050565b6000613b0f613b0a84613acb565b613ab0565b905082815260208101848484011115613b2b57613b2a613a4b565b5b613b36848285613463565b509392505050565b600082601f830112613b5357613b52613a46565b5b8151613b63848260208601613afc565b91505092915050565b613b75816134e0565b8114613b8057600080fd5b50565b600081519050613b9281613b6c565b92915050565b600080600060608486031215613bb157613bb0612f8b565b5b600084015167ffffffffffffffff811115613bcf57613bce612f90565b5b613bdb86828701613b3e565b9350506020613bec86828701613678565b9250506040613bfd86828701613b83565b9150509250925092565b600060208284031215613c1d57613c1c612f8b565b5b6000613c2b84828501613b83565b91505092915050565b7f73657420555249206265666f7265206c697374696e6700000000000000000000600082015250565b6000613c6a601683613452565b9150613c7582613c34565b602082019050919050565b60006020820190508181036000830152613c9981613c5d565b9050919050565b600060208284031215613cb657613cb5612f8b565b5b600082015167ffffffffffffffff811115613cd457613cd3612f90565b5b613ce084828501613b3e565b91505092915050565b6000606082019050613cfe6000830186613438565b613d0b6020830185613438565b8181036040830152613d1d81846134a7565b9050949350505050565b7f707269636520616c726561647920736574202100000000000000000000000000600082015250565b6000613d5d601383613452565b9150613d6882613d27565b602082019050919050565b60006020820190508181036000830152613d8c81613d50565b9050919050565b7f4e6f206f6666657220666f756e642066726f6d20796f75000000000000000000600082015250565b6000613dc9601783613452565b9150613dd482613d93565b602082019050919050565b60006020820190508181036000830152613df881613dbc565b9050919050565b6000613e0a82612f95565b91507fffffffffffffffffffffffffffffffffffffffffffffffffffffffffffffffff8203613e3c57613e3b613726565b5b600182019050919050565b6000604082019050613e5c60008301856130a9565b613e6960208301846130a9565b9392505050565b7f4e487b7100000000000000000000000000000000000000000000000000000000600052602260045260246000fd5b60006002820490506001821680613eb757607f821691505b602082108103613eca57613ec9613e70565b5b50919050565b7f796f752063616e27742073656c6c206d6f7265207468616e20796f752068617660008201527f6500000000000000000000000000000000000000000000000000000000000000602082015250565b6000613f2c602183613452565b9150613f3782613ed0565b604082019050919050565b60006020820190508181036000830152613f5b81613f1f565b9050919050565b7f6e6f203020616d6f756e74206f66666572000000000000000000000000000000600082015250565b6000613f98601183613452565b9150613fa382613f62565b602082019050919050565b60006020820190508181036000830152613fc781613f8b565b9050919050565b6000604082019050613fe36000830185613438565b613ff06020830184613438565b9392505050565b7f617070726f766520796f7572204e465420666972737400000000000000000000600082015250565b600061402d601683613452565b915061403882613ff7565b602082019050919050565b6000602082019050818103600083015261405c81614020565b9050919050565b7f6368616e6765207072656578697374696e67206f6666657220696e7374656164600082015250565b6000614099602083613452565b91506140a482614063565b602082019050919050565b600060208201905081810360008301526140c88161408c565b9050919050565b60006080820190506140e46000830187613438565b81810360208301526140f681866134a7565b905061410560408301856130a9565b61411260608301846130a9565b9594505050505056fea2646970667358221220009889160c674dc449906e51fb82475a3e2da77f57c462221a8abc97feb8c7b864736f6c634300080e0033",
  "immutableReferences": {},
  "source": "// SPDX-License-Identifier: MIT\r\npragma solidity 0.8.14;\r\n\r\nimport \"./ArtistCollection.sol\";\r\n\r\ncontract ListAndExchange{\r\n\r\n      address thisAddress = address(this);\r\n      address[] empty1;\r\n      uint[] empty2;\r\n      NFT[] empty3;     \r\n\r\n      struct NFT{\r\n        address collectionAddress;\r\n        address creator;\r\n        string name;\r\n        string uri;\r\n        uint IdInCollection;\r\n        uint exchangeId;\r\n        uint sold;\r\n        uint forSale;\r\n        uint minPrice;\r\n        address[] sellers;\r\n        uint[] prices;\r\n        uint[] amounts;\r\n        uint height;\r\n        bool hair;\r\n      }    \r\n\r\n      NFT[] public nft;\r\n    \r\n      mapping(address => ArtistCollection[]) public collectionsC; //list of collections created by user\r\n      mapping(address => ArtistCollection[]) public collectionsB; //list of collections in which the user balance is > 0 (suppose that he didn't send NFT through another platform)\r\n\r\n      event Listed(address creator, address collectionAddress, string name);\r\n      event ForSale(address collectionAddress, string name, uint amount, uint price);\r\n      event PriceChanged(uint exchangeId, uint price);\r\n      event AmountChanged(uint exchangeId, uint newAmount);\r\n      event Bought(uint exchangeId, address seller, uint possibleAmount);\r\n      event CollectionAdded(ArtistCollection contrat);\r\n\r\n  \r\n    function PositiveIndexOfCollectionC (address add, ArtistCollection contrat) public view returns (uint) {\r\n        uint i = collectionsC[add].length; uint j; bool Done;\r\n        while (i > 0) {\r\n            if (collectionsC[add][i-1] == contrat) {\r\n            Done = true; j=i; i=1;\r\n            } \r\n            i--;\r\n        }\r\n        if (Done == true) {return j;} {return 0;}\r\n    }\r\n\r\n    function NbNFT () public view returns (uint) {\r\n        return nft.length;\r\n        }\r\n\r\n    function PositiveIndexOfCollectionB (address add, ArtistCollection contrat) public view returns (uint) {\r\n        uint i = collectionsB[add].length; uint j; bool Done;\r\n        while (i > 0) {\r\n            if (collectionsB[add][i-1] == contrat) {\r\n            Done = true; j=i; i=1;\r\n            } \r\n            i--;\r\n        }\r\n        if (Done == true) {return j;} {return 0;}\r\n    }\r\n\r\n    function NbCollB(address add) public view returns (uint) {\r\n        return collectionsB[add].length;\r\n    }\r\n\r\n    function NbCollC(address add) public view returns (uint) {\r\n        return collectionsC[add].length;\r\n    }\r\n\r\n    function getSellers(uint exchangeId) public view returns (address[] memory) {\r\n        return nft[exchangeId].sellers;\r\n    }\r\n\r\n    function getPrices(uint exchangeId) public view returns (uint[] memory) {\r\n        return nft[exchangeId].prices;\r\n    }\r\n\r\n    function getAmounts(uint exchangeId) public view returns (uint[] memory) {\r\n        return nft[exchangeId].amounts;\r\n    }\r\n\r\n    function MapCollection() external {   \r\n\r\n        ArtistCollection contrat = ArtistCollection(msg.sender);\r\n        address creator = contrat.creator();    \r\n        collectionsC[creator].push(contrat);\r\n\r\n        emit CollectionAdded(contrat);   \r\n    }\r\n\r\n    function ListNFT(address collectionAddress, uint256 Id ) public {\r\n        ArtistCollection contrat = ArtistCollection(collectionAddress);\r\n        address creator = contrat.creator(); \r\n        (string memory name, uint height, bool hair) = contrat.nft(Id); \r\n        require(contrat.HasURI(Id)==true, \"set URI before listing\");\r\n        NFT memory _NFT = NFT(collectionAddress, creator, name, contrat.uri(Id), Id, nft.length, 0, 0, 0, empty1, empty2, empty2, height, hair);\r\n        nft.push(_NFT);\r\n        if (!(contrat.balanceOf(creator, Id)==0)) {           \r\n              uint index = PositiveIndexOfCollectionB(creator, contrat);\r\n              //if the buyer don't have the collection in his list, we add it\r\n              if (index == 0) {collectionsB[creator].push(contrat);}\r\n            }      \r\n\r\n        emit Listed(creator, collectionAddress, name);\r\n    }\r\n\r\n    function SellNFT(uint exchangeId, uint price , uint amount) public {  \r\n\r\n        // a seller can sell the same type of NFT at only one price: \r\n        //see https://cointelegraph.com/news/opensea-email-over-inactive-nft-listings-sparks-twitter-debate \r\n        // or https://journalducoin.com/nft/corriger-erreur-opensea-aggrave/\r\n       \r\n        require(!(amount == 0), \"no 0 amount offer\"); \r\n        address collectionAddress = nft[exchangeId].collectionAddress;\r\n        ArtistCollection contrat = ArtistCollection(collectionAddress);\r\n        string memory name = nft[exchangeId].name; \r\n        uint IdInCollection = nft[exchangeId].IdInCollection;\r\n        require(contrat.balanceOf(msg.sender, IdInCollection) >= amount, \"you can't sell more than you have\");\r\n        require(contrat.isApprovedForAll(msg.sender, thisAddress) == true, \"approve your NFT first\");\r\n        uint i = nft[exchangeId].sellers.length; \r\n        bool Done;\r\n        while (i>0) { \r\n            if (nft[exchangeId].sellers[i-1] == msg.sender) {\r\n              require(nft[exchangeId].prices[i-1]==price, \"change preexisting offer instead\");\r\n              nft[exchangeId].amounts[i-1] += amount; i=1; Done = true;\r\n            }  \r\n            i--; \r\n        }\r\n        if (Done == false) {\r\n            nft[exchangeId].sellers.push(msg.sender);\r\n            nft[exchangeId].prices.push(price);\r\n            nft[exchangeId].amounts.push(amount);\r\n        }\r\n        if (nft[exchangeId].forSale ==0) {\r\n            nft[exchangeId].minPrice = price;\r\n            } \r\n            {\r\n            if (price < nft[exchangeId].minPrice) {\r\n                nft[exchangeId].minPrice = price;\r\n            }\r\n        }\r\n        nft[exchangeId].forSale += amount;\r\n        emit ForSale(collectionAddress, name, amount, price);\r\n    }\r\n\r\n    function ChangePrice(uint exchangeId, uint newPrice) public {\r\n\r\n        uint i = nft[exchangeId].sellers.length;\r\n        uint j=i;\r\n        bool Done;\r\n        uint oldPrice;\r\n        while (i > 0) {\r\n            if (nft[exchangeId].sellers[i-1] == msg.sender) {\r\n               oldPrice = nft[exchangeId].prices[i-1];\r\n               require(!(oldPrice==newPrice), \"price already set !\");\r\n               nft[exchangeId].prices[i-1] = newPrice;\r\n               if ( newPrice < nft[exchangeId].minPrice ) {\r\n               nft[exchangeId].minPrice = newPrice; \r\n               }\r\n               Done=true; i=1;\r\n            } i--;\r\n        }\r\n        require(Done==true, \"No offer found from you\");\r\n        uint minPrice = nft[exchangeId].minPrice;\r\n        //resetting minPrice if it was oldPrice:\r\n        if (oldPrice == minPrice) { \r\n            minPrice=nft[exchangeId].prices[0];\r\n            for (uint k=1; k<j; k++) { \r\n                if (nft[exchangeId].prices[k] < minPrice && !(nft[exchangeId].amounts[k] == 0) ) {\r\n                    minPrice = nft[exchangeId].prices[k];\r\n                } \r\n            }\r\n            nft[exchangeId].minPrice = minPrice;\r\n        }       \r\n\r\n        emit PriceChanged(exchangeId, newPrice);\r\n    }\r\n\r\n    function ChangeAmount(uint exchangeId, uint newAmount) public {\r\n\r\n        address collectionAddress = nft[exchangeId].collectionAddress;\r\n        ArtistCollection contrat = ArtistCollection(collectionAddress);\r\n        uint IdInCollection = nft[exchangeId].IdInCollection;\r\n        require(contrat.balanceOf(msg.sender, IdInCollection) >= newAmount, \"you can't sell more than you have\");\r\n        uint i = nft[exchangeId].sellers.length;\r\n        uint index;\r\n        bool Done;\r\n        while (i > 0) {\r\n            if (nft[exchangeId].sellers[i-1] == msg.sender) {\r\n                Done=true; index = i-1;\r\n                uint oldAmount=nft[exchangeId].amounts[i-1];\r\n                nft[exchangeId].forSale += newAmount - oldAmount;  \r\n                i=1; \r\n            } \r\n            i--;\r\n        }\r\n        require(Done == true, \"No offer found from you\");\r\n        if (newAmount == 0 && nft[exchangeId].prices[index] == nft[exchangeId].minPrice){\r\n        //resetting minPrice if the offer becomes empty and was a best one\r\n        uint minPrice = nft[exchangeId].prices[0];\r\n        uint j = nft[exchangeId].prices.length;\r\n            for (uint k=1; k<j; k++) { \r\n                if (nft[exchangeId].prices[k] < minPrice && !(nft[exchangeId].amounts[k] == 0)) {\r\n                    minPrice = nft[exchangeId].prices[k];\r\n                }\r\n               \r\n            }\r\n            nft[exchangeId].minPrice = minPrice;\r\n\r\n        }\r\n\r\n        emit AmountChanged(exchangeId, newAmount);       \r\n    }\r\n       \r\n    function BuyNFT(uint exchangeId, uint sellerIndex, uint amount) external payable {\r\n        require(!(amount==0), \"no 0 buy\");\r\n        uint price = nft[exchangeId].prices[sellerIndex];\r\n        address seller = nft[exchangeId].sellers[sellerIndex];       \r\n        address collectionAddress = nft[exchangeId].collectionAddress;\r\n        uint IdInCollection = nft[exchangeId].IdInCollection;\r\n        ArtistCollection contrat = ArtistCollection(collectionAddress);      \r\n        uint sellerBalance = contrat.balanceOf(seller,IdInCollection);\r\n        //updating offer if sellerBalance is too low\r\n        if (sellerBalance < nft[exchangeId].amounts[sellerIndex]) {\r\n            nft[exchangeId].amounts[sellerIndex] = sellerBalance; }\r\n        require(sellerBalance >= amount, \"amount not available\");\r\n        uint total = price*amount;      \r\n        require(msg.value >= total, \"not enough ETH to buy available NFT\");\r\n        uint refund = msg.value-total;\r\n        contrat.safeTransferFrom(seller,msg.sender, IdInCollection, amount, \"\");\r\n        address payable addr = payable(seller); \r\n        addr.transfer(total);\r\n        //ETH transfer costs 21000 gas, that is with a gas price of 4 gwei, 10^14 wei; it's useless to refund less and we may run out of gas \r\n        if (refund>10**14) {address payable addr2 = payable(msg.sender); addr2.transfer(refund);}\r\n        nft[exchangeId].sold += amount;\r\n        nft[exchangeId].forSale -= amount;\r\n        nft[exchangeId].amounts[sellerIndex] -= amount;\r\n        uint index = PositiveIndexOfCollectionB(msg.sender, contrat);\r\n        //if the buyer don't have the collection in his list, we add it\r\n        if (index == 0) {collectionsB[msg.sender].push(contrat);}\r\n        //if the seller have no more NFT in that collection, we remove the collection of his list\r\n        if (contrat.AllBalancesOf(seller)==0 ) {\r\n            index = PositiveIndexOfCollectionB(seller, contrat);\r\n            uint last = collectionsB[seller].length;\r\n            collectionsB[seller][index-1]=collectionsB[seller][last-1];\r\n            collectionsB[seller].pop();\r\n            }\r\n             \r\n        emit Bought(exchangeId, seller, amount);\r\n    }\r\n\r\n}",
  "sourcePath": "/home/bosca/NFT9/contracts/ListAndExchange.sol",
  "compiler": {
    "name": "solc",
    "version": "0.8.14+commit.80d49f37.Emscripten.clang"
  },
  "schemaVersion": "3.4.7",
  "updatedAt": "2022-06-27T12:49:35.127Z",
  "networkType": "ethereum",
  "devdoc": {
    "kind": "dev",
    "methods": {},
    "version": 1
  },
  "userdoc": {
    "kind": "user",
    "methods": {},
    "version": 1
  }
}