{
  "contractName": "Royalties",
  "abi": [
    {
      "inputs": [
        {
          "internalType": "bytes4",
          "name": "interfaceId",
          "type": "bytes4"
        }
      ],
      "name": "supportsInterface",
      "outputs": [
        {
          "internalType": "bool",
          "name": "",
          "type": "bool"
        }
      ],
      "stateMutability": "view",
      "type": "function",
      "constant": true
    },
    {
      "inputs": [
        {
          "internalType": "uint256",
          "name": "tokenId",
          "type": "uint256"
        },
        {
          "internalType": "uint256",
          "name": "value",
          "type": "uint256"
        }
      ],
      "name": "royaltyInfo",
      "outputs": [
        {
          "internalType": "address",
          "name": "receiver",
          "type": "address"
        },
        {
          "internalType": "uint256",
          "name": "royaltyAmount",
          "type": "uint256"
        }
      ],
      "stateMutability": "view",
      "type": "function",
      "constant": true
    }
  ],
  "bytecode": "0x608060405234801561001057600080fd5b5061051e806100206000396000f3fe608060405234801561001057600080fd5b50600436106100365760003560e01c806301ffc9a71461003b5780632a55205a1461006b575b600080fd5b610055600480360381019061005091906102ad565b61009c565b60405161006291906102f5565b60405180910390f35b61008560048036038101906100809190610346565b610116565b6040516100939291906103d6565b60405180910390f35b60007f2a55205a000000000000000000000000000000000000000000000000000000007bffffffffffffffffffffffffffffffffffffffffffffffffffffffff1916827bffffffffffffffffffffffffffffffffffffffffffffffffffffffff1916148061010f575061010e826101e6565b5b9050919050565b60008060008060008681526020019081526020016000206040518060400160405290816000820160009054906101000a900473ffffffffffffffffffffffffffffffffffffffff1673ffffffffffffffffffffffffffffffffffffffff1673ffffffffffffffffffffffffffffffffffffffff1681526020016000820160149054906101000a900462ffffff1662ffffff1662ffffff1681525050905080600001519250612710816020015162ffffff16856101d2919061042e565b6101dc91906104b7565b9150509250929050565b60007f01ffc9a7000000000000000000000000000000000000000000000000000000007bffffffffffffffffffffffffffffffffffffffffffffffffffffffff1916827bffffffffffffffffffffffffffffffffffffffffffffffffffffffff1916149050919050565b600080fd5b60007fffffffff0000000000000000000000000000000000000000000000000000000082169050919050565b61028a81610255565b811461029557600080fd5b50565b6000813590506102a781610281565b92915050565b6000602082840312156102c3576102c2610250565b5b60006102d184828501610298565b91505092915050565b60008115159050919050565b6102ef816102da565b82525050565b600060208201905061030a60008301846102e6565b92915050565b6000819050919050565b61032381610310565b811461032e57600080fd5b50565b6000813590506103408161031a565b92915050565b6000806040838503121561035d5761035c610250565b5b600061036b85828601610331565b925050602061037c85828601610331565b9150509250929050565b600073ffffffffffffffffffffffffffffffffffffffff82169050919050565b60006103b182610386565b9050919050565b6103c1816103a6565b82525050565b6103d081610310565b82525050565b60006040820190506103eb60008301856103b8565b6103f860208301846103c7565b9392505050565b7f4e487b7100000000000000000000000000000000000000000000000000000000600052601160045260246000fd5b600061043982610310565b915061044483610310565b9250817fffffffffffffffffffffffffffffffffffffffffffffffffffffffffffffffff048311821515161561047d5761047c6103ff565b5b828202905092915050565b7f4e487b7100000000000000000000000000000000000000000000000000000000600052601260045260246000fd5b60006104c282610310565b91506104cd83610310565b9250826104dd576104dc610488565b5b82820490509291505056fea2646970667358221220de557cbef0fd8195b213a024be6097b8d45ce6dfc6e9493f4f71be531df5f6a264736f6c634300080e0033",
  "immutableReferences": {},
  "source": "// SPDX-License-Identifier: MIT\r\npragma solidity 0.8.14;\r\n\r\nimport \"@openzeppelin/contracts/token/ERC1155/ERC1155.sol\";\r\nimport \"@openzeppelin/contracts/utils/Counters.sol\";\r\nimport \"@openzeppelin/contracts/utils/introspection/ERC165.sol\";\r\n\r\ninterface IERC2981Royalties {\r\n    function royaltyInfo(uint256 _tokenId, uint256 _value) external view  returns (address _receiver, uint256 _royaltyAmount);\r\n}\r\n\r\ncontract Royalties is IERC2981Royalties, ERC165{\r\n    struct RoyaltyInfo {\r\n        address recipient;\r\n        uint24 amount;\r\n    }\r\n\r\n    mapping(uint256 => RoyaltyInfo) internal _royalties;\r\n\r\n    function supportsInterface(bytes4 interfaceId) public view virtual override returns (bool) {\r\n        return interfaceId == type(IERC2981Royalties).interfaceId || super.supportsInterface(interfaceId);\r\n    }\r\n\r\n    function _setTokenRoyalty( uint256 tokenId, address recipient, uint256 value) internal {\r\n        require(value <= 10000, 'ERC2981Royalties: Too high');\r\n        _royalties[tokenId] = RoyaltyInfo(recipient, uint24(value));\r\n    }\r\n\r\n    function royaltyInfo(uint256 tokenId, uint256 value) external view override returns (address receiver, uint256 royaltyAmount)\r\n    {\r\n        RoyaltyInfo memory royalties = _royalties[tokenId];\r\n        receiver = royalties.recipient;\r\n        royaltyAmount = (value * royalties.amount) / 10000;\r\n    }\r\n}\r\n\r\n \r\n",
  "sourcePath": "/home/bosca/NFT9/contracts/Royalties.sol",
  "compiler": {
    "name": "solc",
    "version": "0.8.14+commit.80d49f37.Emscripten.clang"
  },
  "schemaVersion": "3.4.7",
  "updatedAt": "2022-06-27T12:49:35.073Z",
  "networkType": "ethereum",
  "devdoc": {
    "kind": "dev",
    "methods": {
      "supportsInterface(bytes4)": {
        "details": "See {IERC165-supportsInterface}."
      }
    },
    "version": 1
  },
  "userdoc": {
    "kind": "user",
    "methods": {},
    "version": 1
  }
}